:100000000C94FD010C941A020C94CA0A0C941A0266
:100010000C941A020C941A020C941A020C948B0B76
:100020000C941A020C941A020C941A020C941A02E0
:100030000C941A020C940C080C941A020C941A02D8
:100040000C941A020C941A020C941A020C941A02C0
:100050000C941A020C941A020C9481050C941A0246
:100060000C941A023F065B4F666D7D077F6F777CAD
:10007000395E7971004053332944494E2E000030D7
:10008000280000100800024002C593C08094199413
:1000900098918815981599848095999598000000F5
:1000A000000000000002020000538E9589A4B805EC
:1000B00011A4B01519150905999189202080915135
:1000C000050111C3818385859195098595950D0657
:1000D000142420819141038187420642204412006A
:1000E000000000000000000000040080000080000C
:1000F0001000010100020020004000000800040080
:100100002000021000000000000000E351D1635203
:1001100062E2CDC34FCFD2ADEDF2A8A3B260E061F1
:10012000E19283888DC80444D050E884C4434F4E84
:1001300054494B4900364C4F5750414E0050494EA0
:10014000470050494E47494E470054454D50004DD9
:100150004F4445200044454720460044454720433E
:100160000053454E44004F4E4345004155544F0007
:10017000444542554700444247204F4E00444247C1
:10018000204F46460053454E540053454E44494E79
:1001900047002D01000200000000000035010002B0
:1001A0000000000000003D0100030B040000440AB1
:1001B000420102020202000000004A010005020B97
:1001C000000000004F01040608080000000055016F
:1001D000050507070100130A5B0105050606000077
:1001E000130A610104090505000000006601080EFC
:1001F0000A0A0000D1096B01080F09090100D109A1
:100200007001000C04020000000076010B0B0D0DC4
:100210000100230A7D010B0B0C0C0000230A850151
:10022000090E0E0E000000008A010A0F0F0F0000D9
:10023000000050494E4753204641494C4544005721
:10024000414B452D2D2D009B0395038F0388038281
:10025000037B0373036C0364035C0353034B03428C
:100260000339032F0326031C0312030703FD02F2C5
:1002700002E702DC02D002C502B902AD02A102957A
:100280000289027C027002630257024A023E023275
:1002900002250219020C020002F401E801DC01D07F
:1002A00001C401B801AD01A20196018C0181017662
:1002B000016C01620158014E0144013B01320129E8
:1002C00001200117010F010701FF00F700F000E90D
:1002D00000E100DB00D400CD00C700C100BB00AAD4
:1002E00003A703A403A1039E039B03980394039114
:1002F000038D038A03860382037E037B03770372E5
:10030000036E036A03660361035D03580353034FDF
:10031000034A03450340033B03360330032B032604
:100320000320031B0315030F030A030403FE02F853
:1003300002F202EC02E602DF02D902D302CC02C6CC
:1003400002BF02B902B202AC02A5029E029702915C
:10035000028A0283027C0275026E02680261025AFE
:100360000253024C0245023E0237023002290222A9
:10037000021B0215020E0207020002F901F201EC53
:1003800001E501DE01D801D101CB01C401BE01B7F5
:1003900001B101AA01A4019E01980192018C01867C
:1003A0000180017A0174016E01680163015D0158E9
:1003B0000152014D01470142013D01380133012E37
:1003C00001290124011F011A01150111010C010865
:1003D000010301FF00FB00F600F200EE00EA00E678
:1003E00000E200DE00DB00D700D300CF00CC00C865
:1003F00000C500C200BE00BB000011241FBECFEF2D
:10040000D8E0DEBFCDBF11E0A0E0B1E0EEE2F8E160
:1004100002C005900D92A631B107D9F711E0A6E10F
:10042000B1E001C01D92AE39B107E1F70E94CF06DD
:100430000C94150C0C940000E4E6F0E090819E7F93
:100440009083206820937A00482B40937C0060932F
:100450007B0081E0809316011092170180E090E00C
:100460000895EAE7F0E080818F778083E4E6F0E0AA
:100470008081816080831092160110921701089587
:1004800080911601882319F42FEF3FEF0AC081E015
:100490008093170180917A00806480937A0020E035
:1004A00030E0C9010895982F80911701882399F0B1
:1004B00080917A0086FD0FC01092170180917C0018
:1004C0009295990F907E892B80937C0020917800E3
:1004D0003091790002C02FEF3FEFC90108950E94CB
:1004E000400280E00E9453022FEF8F3F9207C9F332
:1004F000629902C080E10895803A910514F481E088
:10050000089521E08038920714F488E0089522E0ED
:100510008038920714F484E008958058934014F0D2
:1005200080E0089582E008950E946F029091350165
:10053000882329F4903249F41092350108959032BD
:1005400011F480E008958093350108950E9494028B
:10055000811181E008950E94A6028823E1F3809131
:10056000350190E29093350108950E94310208957B
:10057000EEE7F0E08081826080836A98729A8198C9
:10058000899881E060E040E427E00E941C02089521
:100590008091E40084FFFCCF81E98093E4008091A6
:1005A000E40084FFFCCF1092E4008091640080613D
:1005B000809364000895482F6AE00E94AD0B282FB5
:1005C00030E084E0220F331F8A95E1F7842F0E94E8
:1005D000AD0B892F822B089560E070E021C0FA01F5
:1005E0008491E82FF0E0EF71F070E451FF4F20812B
:1005F00082958695877090E0032E02C0880F991F20
:100600000A94E2F78095822380834F5F5F4FF0E08A
:100610004D375F0721F76E5F7F4F6830710521F01E
:10062000362F46E750E0DBCF80E090E00895382F8A
:10063000E82FEF71E43180F4F0E0E451FF4F2081C6
:1006400032953695377081E090E002C0880F991F8F
:100650003A95E2F7282B20830895382FE82FEF7181
:10066000E43188F4F0E0E451FF4F20813295369573
:10067000377081E090E002C0880F991F3A95E2F749
:100680008095822380830895EF92FF920F931F93AA
:10069000CF93DF939C01CB01820F931F839724F0AC
:1006A00062E270E0621B730B8901055F1E4FE90176
:1006B0007B01E20EF31E07C0F80184910E9417032C
:1006C00021960F5F1F4FCE15DF05B4F3DF91CF9159
:1006D0001F910F91FF90EF900895EF92FF920F936B
:1006E0001F93CF93DF939C017B01CB01820F931F5C
:1006F00083972CF092E2E92EF12CE21AF30A890199
:10070000055F1E4FE90107C0F80184910E942D0387
:1007100021960F5F1F4FCE15DF05B4F3DF91CF9108
:100720001F910F91FF90EF900895809164008F7E4C
:10073000809364008FEF8093E50087E08093E6006C
:100740008EE68093E70088EC8093E40080E090E000
:1007500062E270E00E946D0380E290E024E09595F3
:1007600087952A95E1F7009711F481E090E0909346
:10077000340180933301909332018093310180E002
:1007800090E00895CF93DF93660F771FA6E7B0E060
:1007900040E050E0C82FD0E0CE01042E02C0959575
:1007A00087950A94E2F780FF16C0FD018491E82F37
:1007B000F0E0EF71F070E451FF4F20818295869553
:1007C000877090E0062E02C0880F991F0A94E2F706
:1007D000282B208316C0FD018491E82FF0E0EF71F3
:1007E000F070E451FF4F208182958695877090E0EC
:1007F000062E02C0880F991F0A94E2F78095822383
:1008000080834F5F5F4F11964730510509F0C4CF89
:10081000DF91CF910895AF92BF92CF92DF92EF9286
:10082000FF920F931F93CF93DF937C01C62ED42E9C
:10083000C0E0D0E000E010E04FE0A42EB12CF501C4
:10084000002E02C0EE0FFF1F0A94E2F7EE21FF21F7
:10085000002E02C0F695E7950A94E2F7EC59FF4F97
:10086000E4918E2FBE010E94C2032196C430D105AF
:10087000B1F10C5F1F4FC701002E02C096958795FE
:100880000A94E2F7892BD9F6BE01CC2089F0DD204D
:1008900019F0E5E7F0E002C0E4E6F0E0849121968B
:1008A0000E94C203DD20B9F488EE0E94170313C032
:1008B00088EE0E942D030FC0DD2019F0E4E7F0E080
:1008C00002C0E4E6F0E084918E010F5F1F4FBE018D
:1008D0000E94C203E801C430D10574F309C0CC20E2
:1008E00021F088EE0E94170303C088EE0E942D03BA
:1008F00080E090E0DF91CF911F910F91FF90EF90FA
:10090000DF90CF90BF90AF900895462F28ED813FA4
:10091000920714F481EF98EDFC0187E2E031F807CB
:1009200014F0EFE0F7E2DF01F7FF04C0AA27BB27CE
:10093000AE1BBF0B8A2F6AE00E94AD0B282F30E060
:1009400054E0220F331F5A95E1F796EF899F802DCF
:1009500011248A0F6F2F661F6627661F822B90E077
:100960000E940B040895462F60E00E940B04089536
:100970000F931F93CF93DF93982F9B0168307105DE
:100980000CF05EC08A52813520F0903209F058C0D8
:100990000BC0913608F09F7D903231F0892F8A523A
:1009A000863308F04DC001C080E0E82FF0E0EE0F84
:1009B000FF1FE358FF4F85919591A591B491EC01EC
:1009C000822F81508695A82FB0E0A451BF4F68E0D8
:1009D00070E440E050E0890101701070FD01E40F07
:1009E000F51FCE018F70382F962F9F7024E0D6957B
:1009F000C7952A95E1F784E0769567958A95E1F7A2
:100A00000115110519F0292F206F06C03295307F8E
:100A1000292F2295207F2F6090818081832B922324
:100A2000892B8083808190812823232B2923208375
:100A30004B5F5F4F4431510589F620E030E002C042
:100A40002FEF3FEFC901DF91CF911F910F910895D3
:100A5000EF92FF920F931F93CF93DF937C018B0153
:100A6000C1E0D0E005C080E2BE010E94B80421963A
:100A7000C017D107C4F3E8010DC0F70180818823B6
:100A800011F480E203C00894E11CF11CBE010E9435
:100A9000B8042196C830D10584F380E090E0DF915E
:100AA000CF911F910F91FF90EF9008950F931F9397
:100AB00000911A0110911B01F801E45EFE4F808342
:100AC0000F5F1F4F10931B0100931A01F801E45EA2
:100AD000FE4F10828091180190911901845E9E4F03
:100AE00061E070E00E942805109230010830110585
:100AF0001CF081E08093300180E090E01F910F9125
:100B000008951F920F920FB60F9211242F933F93C7
:100B10004F935F936F937F938F939F93AF93BF9305
:100B2000EF93FF9380913001882309F442C08091B4
:100B300031019091320101979093320180933101FC
:100B4000892BB9F52091180130911901F901E45E62
:100B5000FE4F8081882339F41092190110921801F8
:100B600087E090E007C0809100019091010100971B
:100B700031F00197909301018093000106C02F5F2F
:100B80003F4F3093190120931801809118019091E3
:100B900019016091000170910101845E9E4F0E94D5
:100BA0002805809133019091340190933201809314
:100BB0003101FF91EF91BF91AF919F918F917F9103
:100BC0006F915F914F913F912F910F900FBE0F90BA
:100BD0001F901895279A2F98089527982F9A08956F
:100BE000E4E6F0E0E80FF11DE4918E2F70E00E9442
:100BF000C20308950F931F938C018CE191E0B8011B
:100C00000E94E00BC8010E94E70B8C0190931B012E
:100C100080931A0110921901109218018CE191E051
:100C200061E070E00E942805109230010830110543
:100C30001CF081E08093300180E090E01F910F91E3
:100C40000895CF92DF92EF92FF920F931F93D82EC9
:100C5000C92E5CE1E52E51E0F52EC7014D2D5C2D2E
:100C60000E94F00B0D2D1C2D10931B0100931A01F7
:100C70001092190110921801C70161E070E00E9402
:100C8000280510923001083011051CF081E0809396
:100C9000300180E090E01F910F91FF90EF90DF9086
:100CA000CF9008950F931F93182F092F8CE191E097
:100CB000612F702F0E94F90BE12FF02FDF010D90B3
:100CC0000020E9F78D01015010400E1B1F0B1093FF
:100CD0001B0100931A0110921901109218018CE166
:100CE00091E061E070E00E94280510923001083028
:100CF00011051CF081E08093300180E090E01F91AD
:100D00000F9108959AE0899FF0011124EE56FE4F4D
:100D1000A8E3B1E084918D93319681E0A234B807C5
:100D2000C9F70895809138019091390121E08D3201
:100D3000920751F481E00E948206809138019091DF
:100D400039010E94FA0508958553914049F480E0E5
:100D50000E94820680913801909139010E94FA0523
:100D6000089580913801909139018A54914011F48D
:100D70000E94DE0980913801909139018B56914093
:100D800011F40E94900980913801909139018D539E
:100D9000914021F40E948D090E94EC0208950E9466
:100DA00095030E94B8020E94E4070E94960A0E94DE
:100DB000120B0E94730B0E949A0B789483EE0E9490
:100DC00017038DEE0E94170380E00E948206809137
:100DD0003801909139010E94FA050E947D0B7894A8
:100DE00080919D018823C9F110929D010E94920675
:100DF00080919701882311F00E94EC09809198015D
:100E0000882311F00E94A40980919601882329F17A
:100E100080914201843059F480919A01882339F4F9
:100E200010924201109243010E948D0916C08091D8
:100E30009A01882371F010929A01809143018F5F8B
:100E400080934301843049F482E392E00E94FA05E2
:100E500004C00E949309809342010E94A602882345
:100E600009F442C00E94AB02843091F0853028F42E
:100E7000813041F08230B1F508C0883061F08031B6
:100E800089F50FC080913C0125C080913D0122C0B1
:100E900080913A011FC08091400190914101892BBE
:100EA000B9F0E0914001F09141013097D9F0809183
:100EB0003E0190913F01099580913E0190913F0143
:100EC000892B31F080913801909139010E94FA0507
:100ED00080913B010E9482068091380190913901F6
:100EE0000E94FA050E94B10680E00E948C0877CF2C
:100EF000FC011182818180830895DC019C919F5FB8
:100F0000903508F090E011968C911197981731F078
:100F10008C91FD01E80FF11D62839C930895DC0123
:100F200011968C911197FD01E80FF11D92818F5F51
:100F3000803508F080E011968C93892F08951092E7
:100F4000440180914401809345010895FC01908102
:100F5000818120E0981321E0822F08958A3010F0DB
:100F6000895C0895805D0895FB0190E390838F7004
:100F70008A3010F0895C01C0805D8183089520E48F
:100F80003BE44CE450E00BC021153105410551050F
:100F900011F49FEF17C021503040404050409091D5
:100FA000440180914501981779F380914501E82F1C
:100FB000F0E0EC5BFE4F92818F5F803508F080E0BF
:100FC00080934501892F0895E4E6F0E080818D7FCC
:100FD00080831092440180914401809345018CE00C
:100FE00090E09093C5008093C40086E08093C20097
:100FF00088E98093C10008951092C100E4E6F0E012
:101000008081826080830895982F8091C00085FF41
:10101000FCCF9093C60008951F920F920FB60F92C7
:1010200011242F938F939F93EF93FF932091C600EA
:10103000909144019F5F903508F090E080914501C8
:10104000981741F0E0914401F0E0EC5BFE4F228301
:1010500090934401FF91EF919F918F912F910F9069
:101060000FBE0F901F901895982F8091C00085FF9C
:10107000FCCF81E08093C6008091C00085FFFCCF4B
:101080006093C6008091C00085FFFCCF9093C6009E
:10109000FA0190E009C020818091C00085FFFCCF5B
:1010A0002093C6009F5F31969617A9F78091C000E4
:1010B00085FFFCCF84E08093C6000895DF93CF9333
:1010C000CDB7DEB764970FB6F894DEBF0FBECDBFC5
:1010D000982FDE011196E2E0F1E088E001900D9298
:1010E0008150E1F7FE0139968CE0DF011D928A956F
:1010F000E9F7892FBE016C5F7F4F0E944709CE013F
:1011000001960E94520664960FB6F894DEBF0FBE99
:10111000CDBFCF91DF910895EF92FF920F931F9370
:10112000DF93CF93CDB7DEB72D970FB6F894DEBF20
:101130000FBECDBF882339F49091440180914501C1
:10114000981709F497C00E94BF078983898181306D
:1011500011F081E04BC00E94EA050E94BF0789831D
:1011600089818F3F11F482E041C0898187FF0BC0E4
:101170000E94BF0789838981843009F479C083E0A4
:101180000E945E0875C089818A838A818B3008F04D
:1011900071C00E94BF07898389818F3F11F485E068
:1011A00025C089818B8300E010E084E0E82EF12CDB
:1011B000EC0EFD1E0FC00E94BF07898389818F3FFF
:1011C00011F4802F13C08981F701E00FF11F808394
:1011D0000F5F1F4F8A8190E00817190760F30E9484
:1011E000BF0789838981843021F087E00E945E08EF
:1011F00041C08B81823C69F1833C28F4803C51F0F2
:10120000813CB1F51DC0813D61F1823D69F1803DB8
:1012100079F524C08C8180939C01813011F463E0C6
:101220000BC0823011F462E007C0833011F461E03A
:1012300003C0843019F460E00E94F00510929A0116
:1012400081E50E9417030E94EA0A81E50E942D03AE
:101250000FC0CE0104960E94520608C00E94A90B3E
:1012600005C00E94AB0B02C00E949C0B0E94EA0AC0
:101270000E94ED052D960FB6F894DEBF0FBECDBFD0
:10128000CF91DF911F910F91FF90EF900895282F3C
:10129000FB016AE00E94AD0B905D9183822F0E945A
:1012A000AD0B805D808308959C01FB0197FD02C01A
:1012B00040E004C0309521953F4F41E010823197C6
:1012C00080919B01DF011197882311F483E401C011
:1012D00086E4808380E28C93FD01319721153105EE
:1012E00019F480E3808317C0C9016AE070E00E94AE
:1012F000B90B805D80833197C9016AE070E00E947C
:10130000B90B9B016115710579F7442319F08DE242
:10131000808331973196CF010895109296010895F8
:1013200010929801089581E080939A01809199012B
:101330008F5F8093990181E861E049E951E00E9463
:101340003408809199010895DF93CF93CDB7DEB72C
:101350002C970FB6F894DEBF0FBECDBF0E94EA05F2
:1013600080919B010E94240BBE01655F7F4F0E940C
:101370005409482FE82FF92FDF010D900020E9F7DD
:10138000A81B80E86A2F592F0E9434080E94ED059F
:101390002C960FB6F894DEBF0FBECDBFCF91DF9174
:1013A0000895FC018081882319F01092980103C0F0
:1013B00081E0809398010E94A409089510929701FA
:1013C00080E50E942D0380ED0E942D0382EE0E9495
:1013D0002D030E94EC020895CF93DF9380919B012F
:1013E0000E94240BEC0180919B01882329F480E565
:1013F0000E942D0380ED04C080ED0E942D0380E546
:101400000E94170305B607FE04C082EE0E942D035A
:1014100003C082EE0E941703CE0161E00E948504A2
:10142000DF91CF910895FC018081882319F01092FB
:101430009B0103C081E080939B0181E08093970131
:101440000E94EC0908951F93FC011FB7F894808156
:10145000882361F085B7806885BF85B7806885BFC0
:101460000E94120B80E090E06FEF09C085B78F7784
:1014700085BF85B78F7785BF80E090E061E00E94EF
:10148000080C1FBF1F91089581E080939601109270
:10149000990110929C0181E160E00E94F00581E1D8
:1014A00061E00E94F00581E162E00E94F00581E1C7
:1014B00063E00E94F0050E9493091092850010924B
:1014C00084000895DF93CF9300D0CDB7DEB79A8321
:1014D00089830E94ED05809164008C608093640094
:1014E0000E94C8020E94B5020E94AF0A0E949503A2
:1014F0008FE392E00E94FA0583EE0E9417030E9498
:10150000B8020E94D40A0E946F028823E1F70E9469
:10151000A602882311F00E94AB02CE0101960E9420
:10152000FA050F900F90CF91DF910895DF93CF933D
:101530000F92CDB7DEB780E090E00E94000C9E01D4
:101540002F5F3F4F8F3F19F481E0898301C01982DB
:10155000C9010E94230A0F90CF91DF91089588E17D
:101560000FB6F89480936000109260000FBE83B7AE
:10157000817F846083BFEC9AEBE6F0E08081846039
:10158000808383B7816083BF889583B78E7F83BF55
:10159000EC9808951F920F920FB60F9211240F909E
:1015A0000FBE0F901F90189502C00E94BF07909128
:1015B0004401809145019817C1F788E70E9404080B
:1015C00090914401809145019817B9F381E00E9400
:1015D0008C080895DF93CF930F92CDB7DEB76F9A43
:1015E000779A259A90E01D9A198203C089818F5FAE
:1015F000898389818F3FD1F79F5F9436A1F790E06F
:101600001D9A198203C089818F5F89838981803AFD
:10161000D0F39F5F9436A1F72D9877980F90CF91D4
:10162000DF910895EEE7F0E0808180618083869A03
:101630008E9884988C9881E08093360180E090E0C9
:1016400008951092360108951F93CF93DF93182FBA
:1016500080913601882309F43FC08E9A84E060E0CF
:1016600040E427E00E941C020E94400280E00E94A9
:101670005302EC018FEFCF3FD807C1F30E94310234
:101680000E94B8028E981123B1F447E452E020E0A2
:1016900030E0FA01859194918C179D074CF02F5FF3
:1016A0003F4F4E5F5F4F2C34310599F72FEF3FEFDF
:1016B0002F50304013C04FED52E020E030E0FA01EF
:1016C000859194918C179D074CF02F5F3F4F4E5F93
:1016D0005F4F2D38310599F72FEF3FEFC901DF91AB
:1016E000CF911F9108958DE08093810084E89EE161
:1016F000909389008093880008951092850010923D
:10170000840082E080936F000895EFE6F0E080812E
:101710008D7F808308951F920F920FB60F92112430
:101720008F9381E080939D018F910F900FBE0F905A
:101730001F901895269A089580913701882329F4DF
:101740002E9A81E08093370108952E9810923701E8
:1017500008952E9A08952E980895991B79E004C053
:10176000991F961708F0961B881F7A95C9F78095E0
:10177000089597FB092E07260AD077FD04D00CD0D8
:1017800006D000201AF4709561957F4F0895F6F702
:10179000909581959F4F0895AA1BBB1B51E107C0EF
:1017A000AA1FBB1FA617B70710F0A61BB70B881FF1
:1017B000991F5A95A9F780959095BC01CD01089580
:1017C000FB01DC0105900D920020E1F70895FC017A
:1017D00005900020E9F7809590958E0F9F1F089542
:1017E000FB01DC0102C001900D9241505040D8F73E
:1017F0000895FB01DC0101900D920020E1F70895AE
:10180000F999FECF92BD81BDF89A992780B50895C8
:10181000262FF999FECF92BD81BD20BD0FB6F89459
:0E182000FA9AF99A0FBE01960895F894FFCF38
:10182E000100544F20202020200000000000000066
:06183E00000000000000A4
:00000001FF
