:100000000C946E0B0C948D0B0C948D0B0C948D0B2F
:100010000C948D0B0C948D0B0C948D0B0C948D0B00
:100020000C948D0B0C948D0B0C948D0B0C948D0BF0
:100030000C942E5D0C948D0B0C948D0B0C94BC5D6C
:100040000C94BA1A0C948D0B0C948D0B0C948D0B94
:100050000C94221B0C948D0B0C94161B0C948D0B82
:100060000C948D0B0C948D0B0C948D0B0C948D0BB0
:100070000C94601B0C948D0B0C94541B0C948D0BE6
:100080000C948D0B0C948D0B0C948D0B4854545088
:100090002F312E3020000D0A5365727665723A209A
:1000A000436F6E74696B692F322E302068747470E0
:1000B0003A2F2F7777772E736963732E73652F63CB
:1000C0006F6E74696B692F0D0A436F6E6E65637492
:1000D000696F6E3A20636C6F73650D0A00436F6E33
:1000E00074656E742D747970653A20000D0A0D0ADE
:1000F00000746578742F68746D6C00746578742F63
:1001000063737300746578742F68746D6C00746524
:1001100078742F63737300696D6167652F706E6704
:1001200000696D6167652F67696600696D61676564
:100130002F6A70656700746578742F706C61696EE2
:10014000006170706C69636174696F6E2F6F6374A6
:1001500065742D73747265616D006A7067002E732B
:1001600068746D6C002F696E6465782E68746D6CB0
:10017000002F3430342E68746D6C00343034204ECF
:100180006F7420666F756E6400323030204F4B0004
:100190004745542000526566657265723A002F34F7
:1001A00030342E68746D6C003C68746D6C3E3C623B
:1001B0006F6479206267636F6C6F723D2277686944
:1001C0007465223E3C63656E7465723E3C68313EE8
:1001D000343034202D2066696C65206E6F74206683
:1001E0006F756E643C2F68313E3C68333E476F202C
:1001F0003C6120687265663D222F223E686572650B
:100200003C2F613E20696E73746561642E3C2F68DB
:10021000333E3C2F63656E7465723E3C2F626F64A3
:10022000793E3C2F68746D6C3E002F666176696381
:100230006F6E2E706E670089504E470D0A1A0A00C5
:1002400000000D4948445200000010000000100852
:10025000060000001FF3FF610000012849444154DB
:1002600078DA63F84F2160187A06BCFFFCFEFFB114
:10027000C37BFF6FDDB6F5FFF3C7F77018F01B53B4
:1002800068CEBC39FFA31293FF7B0506FDF7F2751C
:10029000FA5F5C99FD7FEFBEBDD80DF8FEFDFBFF58
:1002A00096B69EFFD76EDF031BD6D2D5F3DFD0C63E
:1002B000F2BF93ABD3FFA8D8A0FFC5A5D9FFCF9DB0
:1002C0003E0696C3E985ECC262A06D51FFBD42A314
:1002D000FE6B1A68826DCDCE4DFEBF76D5521417D7
:1002E000621870EFFEF3FF4B57AD053B57514313B8
:1002F0008C2D81B66717029DBC6B2BFE4004058CCC
:1003000093A717D8B9862686408D4E40DB0DFF2770
:100310006766FFFFFEF93BFE58806BB600FAD51703
:10032000E4D7A8FF53664D017B455147F37F4B53FC
:10033000CBFFE7CF9F633760E9B2A540FF7A01FDAD
:10034000E9F53F3935F97F4F1F3000AF5F032B6868
:10035000E96A81BAC6F27F0F3030B11A00F2DB943D
:10036000493DFFB7026974A72E5D36071CEAC9999B
:10037000C9C0F83F465E42FA0E4C3CD89C3F44F35D
:10038000023A0000236891F233F4E62C00000000EA
:1003900049454E44AE426082002F66696C65732EFB
:1003A0007368746D6C0025213A202F68656164655F
:1003B000722E68746D6C0A3C68313E46696C65202B
:1003C000737461746973746963733C2F68313E3C64
:1003D00062723E3C7461626C652077696474683D4A
:1003E0002231303025223E3C747220616C69676E88
:1003F0003D226C656674223E3C74683E4E616D65BC
:100400003C2F74683E3C74683E416363657373655A
:10041000733C2F74683E3C2F74723E0A252120667F
:10042000696C652D7374617473202A0A3C2F7461A2
:10043000626C653E0A25213A202F666F6F746572E3
:100440002E68746D6C0A002F666F6F7465722E686B
:10045000746D6C003C2F6469763E3C2F626F64794A
:100460003E3C2F68746D6C3E002F68656164657258
:100470002E68746D6C003C21444F43545950452004
:1004800048544D4C205055424C494320222D2F2F8B
:100490005733432F2F4454442048544D4C20342E7E
:1004A0003031205472616E736974696F6E616C2FA4
:1004B0002F454E222022687474703A2F2F77777759
:1004C0002E77332E6F72672F54522F68746D6C34F1
:1004D0002F6C6F6F73652E647464223E0A3C6874DF
:1004E0006D6C3E3C686561643E3C7469746C653E4D
:1004F00057656C636F6D6520746F20746865204369
:100500006F6E74696B692D64656D6F2073657276AB
:100510006572213C2F7469746C653E0A3C6C696E8F
:100520006B2072656C3D227374796C6573686565C8
:10053000742220747970653D22746578742F63731A
:10054000732220687265663D222F7374796C652E64
:10055000637373223E3C6C696E6B2072656C3D2246
:1005600069636F6E2220687265663D2266617669F6
:10057000636F6E2E706E672220747970653D2269FC
:100580006D6167652F706E67223E0A3C2F6865615A
:10059000643E3C626F6479206267636F6C6F723D8A
:1005A00022236666666565632220746578743D2241
:1005B000626C61636B223E0A3C64697620636C6105
:1005C00073733D226D656E75626C6F636B223E3C8A
:1005D00064697620636C6173733D226D656E75226C
:1005E0003E3C7020636C6173733D22626F72646580
:1005F000722D7469746C65223E4D656E753C2F706A
:100600003E3C7020636C6173733D226D656E752294
:100610003E3C6120687265663D222F223E46726F25
:100620006E7420706167653C2F613E3C62723E3C97
:100630006120687265663D2266696C65732E736819
:10064000746D6C223E46696C6520737461746973C5
:10065000746963733C2F613E3C62723E3C6120686A
:100660007265663D227463702E7368746D6C223EF1
:100670004E6574776F726B20636F6E6E656374691D
:100680006F6E733C2F613E3C62723E3C612068722B
:1006900065663D2270726F6365737365732E736850
:1006A000746D6C223E53797374656D2070726F6344
:1006B00065737365733C2F613E3C62723E3C612002
:1006C000687265663D2273656E736F722E7368740F
:1006D0006D6C223E53656E736F7220526561646962
:1006E0006E67733C2F613E3C2F703E3C2F646976F1
:1006F0003E3C2F6469763E0A3C64697620636C61F7
:1007000073733D22636F6E74656E74626C6F636B9E
:10071000223E3C7020636C6173733D22626F726491
:1007200065722D7469746C65223E57656C636F6DDC
:100730006520746F20746865203C6120687265666E
:100740003D22687474703A2F2F7777772E73696320
:10075000732E73652F636F6E74696B692F223E432E
:100760006F6E74696B693C2F613E20776562207300
:100770006572766572213C2F703E0A002F696E64A7
:1007800065782E68746D6C0025213A202F686561AC
:100790006465722E68746D6C0A3C7020636C6173C2
:1007A000733D22696E74726F223E546865736520D2
:1007B0007061676573206172652066726F6D20617C
:1007C000207765627365727665722072756E6E69E8
:1007D0006E6720756E64657220746865203C6120C8
:1007E000687265663D22687474703A2F2F77777748
:1007F0002E736963732E73652F636F6E74696B69F3
:100800002F223E436F6E74696B69206F7065726151
:1008100074696E672073797374656D3C2F613E2E29
:100820000A25212066696C652D7374617473202E0E
:10083000002F70726F6365737365732E7368746DC8
:100840006C0025213A202F6865616465722E6874FA
:100850006D6C0A3C68313E53797374656D2070721B
:100860006F6365737365733C2F68313E3C62723E03
:100870003C7461626C652077696474683D22313034
:100880003025223E3C74723E3C74683E49443C2F05
:1008900074683E3C74683E4E616D653C2F74683EE2
:1008A0003C74683E5468726561643C2F74683E3CD9
:1008B00074683E50726F63657373207374617465FE
:1008C0003C2F74683E3C2F74723E0A2521207072C2
:1008D0006F6365737365730A3C2F7461626C653E68
:1008E0000A25212066696C652D7374617473202E4E
:1008F0000A002F726F626F74732E747874007573B0
:1009000065722D6167656E743A202A0A44697361C5
:100910006C6C6F773A202F002F73656E736F722E99
:100920007368746D6C0025213A202F6865616465D9
:10093000722E68746D6C0A3C68313E53656E736F3D
:10094000722052656164696E67733C2F68313E3C6A
:1009500062723E0A25212073656E736F72730A25D9
:10096000212066696C652D7374617473202E002FCD
:100970007374796C652E6373730068317B7465786A
:10098000742D616C69676E3A63656E7465723B665F
:100990006F6E742D73697A653A313470743B666F8B
:1009A0006E742D66616D696C793A617269616C2C47
:1009B00068656C7665746963613B666F6E742D77EC
:1009C00065696768743A626F6C643B7061646469FE
:1009D0006E673A313070783B7D0A626F64797B6272
:1009E00061636B67726F756E642D636F6C6F723AC3
:1009F000236666666565633B636F6C6F723A626C13
:100A000061636B3B666F6E742D73697A653A3870FB
:100A1000743B666F6E742D66616D696C793A6172B4
:100A200069616C2C68656C7665746963613B7D0AED
:100A30002E777261707B77696474683A3938253B28
:100A40006D617267696E3A30206175746F3B7465D1
:100A500078742D616C69676E3A6C6566743B666F7D
:100A60006E742D66616D696C793A617269616C2C86
:100A700068656C7665746963613B7D0A2E6D656E91
:100A800075626C6F636B7B6D617267696E3A34700F
:100A9000783B77696474683A3135253B666C6F61E1
:100AA000743A6C6566743B70616464696E673A3170
:100AB0003070783B626F726465723A736F6C696410
:100AC000203170783B6261636B67726F756E642D65
:100AD000636F6C6F723A236666666364323B74655B
:100AE00078742D616C69676E3A6C6566743B666FED
:100AF0006E742D73697A653A3970743B666F6E74E3
:100B00002D66616D696C793A617269616C2C6865FA
:100B10006C7665746963613B7D0A2E636F6E7465E4
:100B20006E74626C6F636B7B6D617267696E3A3471
:100B300070783B77696474683A3530253B666C6F32
:100B400061743A6C6566743B70616464696E673A9F
:100B5000313070783B626F726465723A3170782020
:100B6000646F747465643B6261636B67726F756E0A
:100B7000642D636F6C6F723A77686974653B666F5A
:100B80006E742D73697A653A3870743B666F6E7453
:100B90002D66616D696C793A617269616C2C68656A
:100BA0006C7665746963613B7D0A2E6E657773624E
:100BB0006C6F636B7B6D617267696E3A3470783B02
:100BC00077696474683A3234253B666C6F61743AB5
:100BD0006C6566743B70616464696E673A3130704D
:100BE000783B626F726465723A736F6C696420312E
:100BF00070783B6261636B67726F756E642D636FB3
:100C00006C6F723A236666666364323B746578740F
:100C10002D616C69676E3A6C6566743B666F6E74C5
:100C20002D73697A653A3870743B666F6E742D6601
:100C3000616D696C793A617269616C2C68656C767A
:100C400065746963613B7D0A2E7072696E746162BE
:100C50006C657B6D617267696E3A3470783B776959
:100C60006474683A3234253B666C6F61743A6C6523
:100C700066743B70616464696E673A313070783BCA
:100C8000626F726465723A303B6261636B67726F68
:100C9000756E642D636F6C6F723A23666666656568
:100CA000633B746578742D616C69676E3A7269672D
:100CB00068743B666F6E742D73697A653A38707428
:100CC0003B666F6E742D66616D696C793A6172690D
:100CD000616C2C68656C7665746963613B7D0A6440
:100CE00069762E726669677B626F726465723A73A9
:100CF0006F6C6964203170783B20746578742D6165
:100D00006C69676E3A6C6566743B70616464696EA9
:100D1000673A313070783B6D617267696E3A313095
:100D200070783B666F6E742D73697A653A387074AB
:100D30003B666C6F61743A72696768743B7D0A70D8
:100D400072652E6578616D706C657B626F7264652B
:100D5000723A736F6C6964203170783B2070616403
:100D600064696E673A313070783B6D617267696EA5
:100D70003A313070783B746578742D616C69676EB8
:100D80003A6C6566743B666F6E742D73697A653A6A
:100D90003870743B666F6E742D66616D696C793A5C
:100DA000617269616C2C68656C7665746963613B1E
:100DB00077686974652D73706163653A7072653B1D
:100DC0007D0A702E696E74726F7B6D617267696ED9
:100DD0002D6C6566743A323070783B6D617267696C
:100DE0006E2D72696768743A323070783B666F6E48
:100DF000742D73697A653A313070743B666F6E7426
:100E00002D66616D696C793A617269616C2C6865F7
:100E10006C7665746963613B7D0A702E636C696EE4
:100E20006B7B666F6E742D73697A653A31327074BC
:100E30003B666F6E742D66616D696C793A636F7590
:100E4000726965722C6D6F6E6F73706163653B20A4
:100E5000746578742D616C69676E3A63656E74654C
:100E6000723B7D0A702E636C696E6B397B666F6EA8
:100E7000742D73697A653A3970743B666F6E742DA0
:100E800066616D696C793A636F75726965722C6D14
:100E90006F6E6F73706163653B746578742D616C00
:100EA00069676E3A63656E7465723B7D0A702E7277
:100EB000656C617465647B666F6E742D73697A65A9
:100EC0003A313070743B666F6E742D66616D696C7B
:100ED000793A617269616C2C68656C7665746963D6
:100EE000613B746578742D616C69676E3A63656EF9
:100EF0007465723B7D0A696D672E72696768747BE1
:100F0000666C6F61743A72696768743B6D61726791
:100F1000696E3A313070783B7D0A696D672E6C6579
:100F200066747B666C6F61743A6C6566743B6D6168
:100F30007267696E3A313070783B7D0A702E66694F
:100F4000677B626F726465723A736F6C696420319B
:100F500070783B746578742D616C69676E3A63656F
:100F60006E7465723B70616464696E673A313070AB
:100F7000783B6D617267696E3A313070783B666FAD
:100F80006E742D73697A653A3770743B7D0A702EE2
:100F9000726669677B626F726465723A736F6C69BF
:100FA00064203170783B746578742D616C69676E6C
:100FB0003A63656E7465723B70616464696E673A2A
:100FC000313070783B6D617267696E3A313070789C
:100FD0003B666F6E742D73697A653A3770743B6641
:100FE0006C6F61743A72696768743B7D0A702E6C2D
:100FF0006669677B626F726465723A736F6C69646D
:10100000203170783B746578742D616C69676E3A35
:1010100063656E7465723B70616464696E673A31D2
:101020003070783B6D617267696E3A313070783B31
:10103000666F6E742D73697A653A3770743B666CAF
:101040006F61743A6C6566743B7D0A707B70616495
:1010500064696E672D6C6566743A313070783B7DDB
:101060000A702E6D61696C616464727B7061646486
:10107000696E672D6C6566743A313070783B666FC7
:101080006E742D73697A653A3770743B666F6E744F
:101090002D66616D696C793A636F75726965722C42
:1010A0007465726D696E616C3B746578742D616CEA
:1010B00069676E3A72696768743B7D0A702E72695F
:1010C0006768747B746578742D616C69676E3A72B9
:1010D000696768743B7D0A702E626F726465722D59
:1010E0007469746C657B746578742D616C69676E66
:1010F0003A63656E7465723B666F6E742D73697AC0
:10110000653A313470743B70616464696E673A307B
:1011100070783B6D617267696E3A3470783B6D61CF
:101120007267696E2D626F74746F6D3A31307078CA
:101130003B636F6C6F723A626C61636B3B626163BD
:101140006B67726F756E642D636F6C6F723A236696
:1011500066666362613B626F726465723A736F6C5C
:101160006964203170783B7D002F7463702E736842
:10117000746D6C0025213A202F6865616465722EBC
:1011800068746D6C0A3C68313E43757272656E74AA
:1011900020636F6E6E656374696F6E733C2F683188
:1011A0003E3C62723E3C7461626C65207769647497
:1011B000683D2231303025223E3C74723E3C7468DA
:1011C0003E4C6F63616C3C2F74683E3C74683E52C9
:1011D000656D6F74653C2F74683E3C74683E537453
:1011E0006174653C2F74683E3C74683E526574724D
:1011F000616E736D697373696F6E733C2F74683EB3
:101200003C74683E54696D65723C2F74683E3C7452
:10121000683E466C6167733C2F74683E3C2F747265
:101220003E0A2521207463702D636F6E6E656374B2
:10123000696F6E730A3C2F7461626C653E0A2521EA
:101240002066696C652D7374617473202E002F7590
:10125000706C6F61642E68746D6C003C68746D6CAA
:101260003E3C626F64793E3C666F726D20616374D0
:10127000696F6E3D2275706C6F61642E68746D6C61
:101280002220656E63747970653D226D756C74699A
:10129000706172742F666F726D2D646174612220AB
:1012A0006D6574686F643D22706F7374223E3C6993
:1012B0006E707574206E616D653D22757365726622
:1012C000696C652220747970653D2266696C6522BF
:1012D0002073697A653D22353022202F3E3C696EAD
:1012E0007075742076616C75653D2255706C6F6108
:1012F000642220747970653D227375626D69742271
:10130000202F3E3C2F666F726D3E3C2F626F6479DA
:101310003E3C2F68746D6C3E0000009E01A8018267
:101320000019132A023702620121139903A603A1AF
:101330000029134704540415003113690476040688
:101340000339137C078807A900411331084208B00C
:10135000004913F208FE081A00511318092609491A
:101360000059136F097A09EF07611369117411DAD3
:101370000069134E125B12BE003C656D3E55702035
:1013800074696D653A3C2F656D3E20253032643AB4
:10139000253032643A253032643C62723E003C654E
:1013A0006D3E566F6C746167653A3C2F656D3E20EB
:1013B00025733C62723E003C656D3E54656D706500
:1013C0007261747572653A3C2F656D3E2025733CE1
:1013D00062723E005B557064617465642025642010
:1013E0007365636F6E64732061676F5D3C62723E0C
:1013F0003C62723E003C747220616C69676E3D22F3
:1014000063656E746572223E3C74643E25703C2FA9
:1014100074643E3C74643E25733C2F74643E3C749B
:10142000643E25703C2F74643E3C74643E25733CDE
:101430002F74643E3C2F74723E0D0A002D25753CBE
:101440002F74643E3C74643E25733C2F74643E3CB0
:1014500074643E25753C2F74643E3C74643E25756F
:101460003C2F74643E3C74643E25632025633C2F0E
:1014700074643E3C2F74723E0D0A003C747220610D
:101480006C69676E3D2263656E746572223E3C74C2
:10149000643E25643C2F74643E3C74643E002535F4
:1014A00075003C74723E3C74643E3C612068726519
:1014B000663D222573223E25733C2F613E3C2F74EE
:1014C000643E3C74643E25643C2F74643E003C7072
:1014D00020636C6173733D72696768743E3C62722D
:1014E0003E3C62723E3C693E54686973207061679D
:1014F0006520686173206265656E2073656E742077
:1015000025752074696D65733C2F693E3C2F6469B5
:10151000763E3C2F626F64793E3C2F68746D6C3E62
:101520000066696C652D7374617473007463702D4B
:10153000636F6E6E656374696F6E730070726F6354
:1015400065737365730073656E736F727300434CDC
:101550004F5345440053594E2D524356440053595E
:101560004E2D53454E540045535441424C49534827
:1015700045440046494E2D574149542D31004649B6
:101580004E2D574149542D3200434C4F53494E473D
:101590000054494D452D57414954004C4153542D59
:1015A00041434B004E4F4E450052554E4E494E471B
:1015B0000043414C4C4544002D2D2D2D2D2D2D50FB
:1015C000696E670D0A002D2D2D2D2D2D2D52454CA8
:1015D0004159206F6E2E0D0A00257325730D0A00E8
:1015E0004950763620416464726573733A202573DE
:1015F0000D0A002E2573206F6E6C696E6520776969
:101600007468206669786564202575206279746540
:101610002077656220636F6E74656E740D0A002515
:1016200073005374617274696E67206175746F73AF
:10163000746172742070726F636573736573000DEB
:101640000A2A2A2A2A2A2A2A426F6F74696E672078
:1016500025732A2A2A2A2A2A2A0D0A000A0D00207E
:1016600025303278253032783A25303278253032BC
:10167000783A25303278253032783A25303278255C
:101680003032783A25303278253032783A25303287
:1016900078253032783A25303278253032783A253C
:1016A00030327825303278200043757272656E745E
:1016B0002049507636206164647265737365733AAD
:1016C000200D0A004C43442070726F6365737320D1
:1016D000737461727475702E0D0A000011241FBEA0
:1016E000CFEFD0E4DEBFCDBF15E0A0E0B1E0EEEE7D
:1016F000FCED00E00BBF02C007900D92A43FB107C4
:10170000D9F71DE2A4EFB5E001C01D92AE3EB107CE
:10171000E1F70E940E1A0C94756E0C940000CF93A2
:10172000DF93EC01288139812115310521F02B331C
:10173000310591F407C00E944B0C8BE390E0998334
:10174000888304C08091922C681711F081E007C053
:10175000CA010E94D710F1CF1982188283E0DF916D
:10176000CF9108956AE071E00E94721708954F9238
:101770005F926F927F928F929F92AF92BF92CF9221
:10178000DF92EF92FF920F931F93DF93CF93CDB72A
:10179000DEB7E0970FB6F894DEBF0FBECDBFFC01F9
:1017A0002B01A080B180C280D380E480F5800681C7
:1017B00017812085318542855385648575858685A9
:1017C00097853E010894611C711C43010E94D3114E
:1017D000E82FF0E0D301AE0FBF1F8AE38C93DE0148
:1017E000AE0FBF1F80E212968C931297FD011382F9
:1017F000C301B2010E947217E0960FB6F894DEBFE3
:101800000FBECDBFCF91DF911F910F91FF90EF9051
:10181000DF90CF90BF90AF909F908F907F906F9010
:101820005F904F900895AB0160E031E0DA011196CE
:10183000FA012491FC01E60FF11D20832A3321F4E3
:101840003323C9F031E012C0293021F4332399F059
:1018500031E00DC0203219F4332349F40CC02A3092
:1018600051F02D3041F0222331F030E06F5F6531CF
:1018700010F4AD01DBCFDC01A60FB11D8C9104C0CB
:101880004F5F5F4FFA0184918032D1F38930C1F309
:101890001C92CA01089580E090E50E94533282E2D2
:1018A00091E00E949B210E94C2110895CF93DF9383
:1018B000EC018E899F89009721F08138910559F5B7
:1018C00004C081E890E09F8B8E8BCE01469663EF3B
:1018D0007DE0AE010E94E833823014F480E01EC047
:1018E000FE01E858FF4FC658DF4F20813181488103
:1018F0005981CA57D040241B350B31832083FE0108
:10190000EA58FF4F80819181840F951F91838083D6
:1019100012161306B4F21F8A1E8A83E0DF91CF915C
:101920000895EF92FF920F931F93CF93DF938C0153
:101930007B01FC0186899789F1E081359F0709F4D5
:101940007FC021E082359207A8F4E1E087349E074A
:1019500099F1F1E088349F0718F4892B41F1D2C046
:1019600021E08B34920709F46BC08D54914009F04B
:10197000C9C047C0F1E087359F0709F49AC021E04C
:101980008835920750F4E1E083359E0709F46BC077
:101990008555914009F0B6C079C021E0893592079C
:1019A00009F49AC08B55914009F0ACC0A1C087E4FE
:1019B00091E0F801978B868BC801469661EC7DE03B
:1019C000A7010E94E83382300CF4A1C0C8018F59EE
:1019D0009F4F6EE270E00E94816AEC0180E291E02C
:1019E000B70141E050E00E94236A892B19F48BE48F
:1019F00091E023C0209761F48DE491E0F801978B8A
:101A0000868BC80146966FE87DE041E451E076C0E0
:101A10002196CE0169E071E043E050E00E94236A24
:101A2000892B49F0CE016FE571E044E050E00E945F
:101A3000236A892B61F481E591E0F801978B868B0D
:101A4000C80146966FE87DE044E051E057C0CE0102
:101A500063E171E00E940A6A892B61F483E591E0F9
:101A6000F801978B868BC80146966FE87DE04EE0C3
:101A700051E044C0CE016DE171E00E940A6A892BF9
:101A800061F485E591E0F801978B868BC801469655
:101A90006FE87DE047E151E031C0CE0167E271E0DF
:101AA0000E940A6A892B61F487E591E0F801978B1F
:101AB000868BC80146966FE87DE041E251E01EC08A
:101AC000CE016BE271E00E940A6A892B61F489E51C
:101AD00091E0F801978B868BC80146966FE87DE010
:101AE0004BE251E00BC08BE591E0F801978B868BC0
:101AF000C80146966FE87DE046E351E00E94E83376
:101B000082302CF0F801178A168A83E001C080E049
:101B1000DF91CF911F910F91FF90EF900895EF9279
:101B2000FF920F931F937C010E941A6A082F8091E5
:101B3000F8269091F9266DED70E04EE050E00E949D
:101B4000F6698091F8269091F9260E96B701402FFC
:101B500050E00E94F669025F10E08091F8269091B3
:101B6000F926800F911F6CEE70E044E050E00E9477
:101B7000F6690C5F1F4FC8011F910F91FF90EF9006
:101B80000895EF92FF920F931F937C010E941A6AAF
:101B9000082F8091F8269091F9266CE870E049E0D2
:101BA00050E00E94F6698091F8269091F9260996F6
:101BB000B701402F50E00E94F669075F10E0809166
:101BC000F8269091F926800F911F66E970E046E4AF
:101BD00050E00E94F6690A5B1F4FC8011F910F91E8
:101BE000FF90EF9008950F931F93DC01A858BF4F0B
:101BF0002D913C911197A857B040E091FA26F091B1
:101C0000FB26868D978DFD01E658FF4F82179307BF
:101C100018F49183808302C031832083AA58BF4F78
:101C20006D917C9111978D010C5F1F4FF8014081E0
:101C300051818091F8269091F9260E94F669F80169
:101C4000808191811F910F910895EF92FF920F93E0
:101C50001F93CF93DF93EC0189819A8121E089382A
:101C60009207A1F0A1E08A389A0718F4892B51F065
:101C700083C0B1E08E389B07F9F0805A914009F09B
:101C80007BC059C089E891E09A838983CE0101968F
:101C900060E20E94B13282300CF470C0CE018F96A7
:101CA00060E971E044E050E00E94236A892B91F4DE
:101CB0008EE891E09A8389837E010894E11CF11CEF
:101CC000C70160E20E94B13282300CF457C08FA588
:101CD0008F3221F080E18093F3264EC088A98E01D7
:101CE0000F591F4F803231F4C80165E671E00E9440
:101CF000136A0FC0C7010E949332FE01E80FF91F5B
:101D000016A6BE01615D7F4FC80144E150E00E940C
:101D1000726ACF59DF4F8091FA269091FB26BE015F
:101D20000E94B70B649681E08883C557D04080EA53
:101D300091E09A8389837E010894E11CF11CC7011C
:101D40006AE00E94B1328230CCF08E01015D1F4FFB
:101D5000C80165E971E048E050E00E94236A892BE0
:101D600031F7C7010E949332FE01E80FF91F15A653
:101D7000C8010E94B20BDBCF1A821982CB58DF4F09
:101D80008881C557D040813009F00AC28BA59CA537
:101D9000F1E082379F0709F4F9C121E08337920708
:101DA00038F40097A1F08157914009F0F7C12AC09B
:101DB000B1E088379B0709F45CC0E1E08A379E07F1
:101DC00009F4E4C18457914009F0E8C12AC08E01AA
:101DD0000F591F4F26E7E22EF12CEC0EFD1EC80115
:101DE000B7010E943F11892BC1F4C80161E771E07E
:101DF0000E94136AC801B7010E943F1181E791E078
:101E00009CA78BA7CE016BE771E00E94910C8230FA
:101E10000CF4C6C182E791E0B7C184E791E09CA7CA
:101E20008BA7CE0169E871E00E94910C82300CF41E
:101E3000B7C18E010F591F4FC8016EE270E00E94BA
:101E4000606A009741F06EE571E046E050E00E9464
:101E5000236A892B41F0C80165E671E00E940A6A95
:101E6000892B09F08FC11EA61DA688E791E09CA7CB
:101E70008BA78DA59EA58A3E910509F459C08B3E7E
:101E8000910518F4892B51F07AC18D3E910509F422
:101E900057C08A50914009F072C1E6C0C858DF4F60
:101EA00088819981C857D0409093F5058093F405B7
:101EB0005AC18091F4059091F5058217930708F4B3
:101EC0005EC18E010A581F4FD801ED91FC9184919B
:101ED000853209F07DC0319684913197813209F0C5
:101EE00077C0329688EF95E0BF010E94130CC4586A
:101EF000DF4F89939993F80120813181D7014D916A
:101F00005C91240F351F281B390B39832883CE574A
:101F1000D0408091F8058A3379F489EF95E0B801D3
:101F20000E943F11892BE1F08AEE90E09EA78DA7D9
:101F3000CE010E94560C11C08DEE90E09EA78DA799
:101F400088EF95E00E941C17FC01C458DF4F6881A0
:101F50007981CC57D040CE01099582300CF420C154
:101F60009CE7E92EF12CEC0EFD1EF701008111819A
:101F7000C8016AE070E00E94FF699C01FE01E2581E
:101F8000FF4F009771F02F5F3F4F021B130B8081B3
:101F90009181080F191F11830083D7012D933C9362
:101FA00002C011821082FE01EA58FF4FC458DF4F71
:101FB00088819981CC57D04091838083FE01E85875
:101FC000FF4FC258DF4F88819981CE57D040C9C09A
:101FD000E091FA26F091FB26868D978DFE01E6585A
:101FE000FF4F8217930718F49183808302C03183D7
:101FF0002083CA58DF4FE881F981C657D0408491C9
:10200000853219F4CF01019601C0CF0165E270E07D
:102010000E94FF699093F7058093F6058091F6057D
:102020009091F7050097E1F0CA58DF4F2881398178
:10203000C657D0408217930799F0821B930BDE019D
:10204000A658BF4F11969C938E93E091FA26F0917B
:10205000FB26268D378D8217930710F02D933C9326
:102060008AE091E09EA78DA78E899F89009729F02D
:102070008A39910509F05DC020C0FE01E858FF4F84
:10208000808191819093120680931106C658DF4F8C
:10209000288139813093100620930F062497888178
:1020A0009981C657D04090930E0680930D063183D8
:1020B00020838AE990E09F8B8E8BCE01469663EF5A
:1020C0007DE0AE010E94E83382300CF469C0DE018D
:1020D000A858BF4FBE0166587F4F8D919C911197B4
:1020E000FB0140815181841B950B11969C938E932B
:1020F0008E010A581F4FF80120813181240F351FAE
:102100003183208318161906A4F280910F0690914E
:102110001006FB0191838083809111069091120635
:102120008D939C9380910D0690910E06D8018D930E
:102130009C931F8A1E8AFE01EA58FF4FC658DF4F44
:102140008081918128813981CA57D040820F931FA5
:1021500091838083FE01E858FF4F80819181821B2B
:10216000930B9183808388E7E82EF12CEC0EFD1E03
:10217000F70120813181121613060CF49ACE1EA6A7
:102180001DA609C08AE791E09CA78BA7CE010E94FB
:10219000560C82302CF080E18093F3261CA61BA6FF
:1021A000DF91CF911F910F91FF90EF9008950F93C2
:1021B0001F93CF93DF93EC014091F326242F30E05F
:1021C000C90180739070892B11F447FF09C02097D3
:1021D00009F449C082E291E0BE010E944A2143C055
:1021E00046FF27C082E291E00E941C21EC0100978B
:1021F000B9F18091FA269091FB26BE010E94D22E61
:102200008E01015D1F4FCE010196B80141E350E000
:102210000E943833CE014696B80141E350E00E9457
:1022200038331CA61BA6CB58DF4F1882C557D040A9
:1022300012C02097A9F043FF0EC088818F5F88836A
:10224000843150F080E28093F32682E291E0BE0177
:102250000E944A2101C01882CE010E94250E03C0AF
:1022600080E28093F326DF91CF911F910F91089523
:1022700081E793E108958BE791E108950895AF9286
:10228000BF92CF92DF92EF92FF920F931F93DF9353
:10229000CF93CDB7DEB728970FB6F894DEBF0FBE49
:1022A000CDBF6C017B0161E773E100E010E05E01EE
:1022B0000894A11CB11C31C0C50148E050E00E9447
:1022C000F6696B817C81C6010E940A6A892B09F537
:1022D000E114F104B1F08D819E81D70111969C9398
:1022E0008E938F81988513969C938E931297F80105
:1022F000EE0FFF1FEB53F94D808191810196918381
:102300008083000F111F0B53194DD801ED91FC91E3
:1023100009C00F5F1F4F69817A816115710561F6F0
:10232000E0E0F0E0CF0128960FB6F894DEBF0FBED4
:10233000CDBFCF91DF911F910F91FF90EF90DF9074
:10234000CF90BF90AF900895FC01178A168A83E062
:102350000895DC0111961C921E92E0911F08F091E5
:102360002008309729F49093200880931F0808953F
:10237000CF010190F081E02D3097D1F7FC01B183BE
:10238000A08308958DE291E00E94A91183E391E07A
:102390000E94A91189E391E00E94A9118FE391E0C5
:1023A0000E94A91108956F927F928F929F92AF928F
:1023B000BF92CF92DF92EF92FF920F931F93DF9322
:1023C000CF93CDB7DEB760970FB6F894DEBF0FBEE0
:1023D000CDBFA982BA82CB82DC82ED82FE820F83DE
:1023E000188729873A874B875C876D877E878F8719
:1023F000988B8401FF24EE24DD245E010894A11C47
:10240000B11C3AE2632E31E0732E2AE3C22E2D2D49
:1024100030E0F901EE0FFF1FEA0DFB1D8081918175
:102420000097D1F4FF20C1F401C0F394F901EF0D3E
:10243000F11DEE0FFF1FEA0DFB1D80819181892B9D
:10244000A1F381E0F81629F480E3D8018D938D0182
:102450002DC0DF0CEF0C20C00E94B82400D000D0AB
:1024600000D0EDB7FEB73196ADB7BEB712961C934C
:102470000E93119773826282958384830E94346BDA
:10248000080F191FD394E394EDB7FEB736960FB635
:10249000F894FEBF0FBEEDBFF8E0EF1639F0D8019B
:1024A000CD928D01B7E0BE1508F0B1CF802F88190D
:1024B00060960FB6F894DEBF0FBECDBFCF91DF910F
:1024C0001F910F91FF90EF90DF90CF90BF90AF9052
:1024D0009F908F907F906F900895CF93DF93EC0142
:1024E0008E899F89009721F08356914081F404C022
:1024F00083E691E09F8B8E8BCE01469662E473E17A
:10250000AE010E94E833823014F480E003C01F8AD9
:102510001E8A83E0DF91CF9108950F931F93CF938D
:10252000DF93EC018E899F89009721F087519140BC
:1025300081F50FC0C058DF4F8091C2089091C30849
:1025400099838883C058D0401CC087E191E09F8B5D
:102550008E8B8E0100581F4FD8014D915C91CE019A
:1025600046966CE674E10E94E833823014F480E011
:1025700013C0D801ED91FC911197808191818D93C9
:102580009C93C058DF4F88819981C058D040892BD7
:10259000E1F61F8A1E8A83E0DF91CF911F910F9190
:1025A0000895CF93DF93EC018E899F89009721F0E6
:1025B0008B3F9105C9F51CC0C058DF4F19821882A6
:1025C000C058D04028C08CE290E0289FF001299F9D
:1025D000F00D389FF00D1124E450F94D85A190E0E5
:1025E0008F709070892B79F08BEF90E09F8B8E8BA2
:1025F000CE01469666EF74E1AE010E94E833823068
:1026000014F480E014C0FE01E058FF4F80819181F6
:10261000019691838083C058DF4F28813981C0584B
:10262000D0402230310578F21F8A1E8A83E0DF9184
:10263000CF910895CF93DF93EC01AB018E899F89F1
:10264000009721F0823D9105B9F40CC0CF59DF4FBE
:10265000D0932A08C0932908C156D04082ED90E05B
:102660009F8B8E8BCE01469665E176E10E94E83322
:10267000823014F480E003C01F8A1E8A83E0DF9159
:10268000CF9108958F929F92AF92BF92CF92DF9297
:10269000EF92FF920F931F93CF93DF934091210806
:1026A000509122086091230870912408411551052A
:1026B0006105710519F4C0E0D0E03DC08DB79EB74B
:1026C0000A970FB6F8949EBF0FBE8DBF2DB73EB7C9
:1026D0002F5F3F4F8091F8269091F926EDB7FEB716
:1026E00092838183E091FA26F091FB26868D978D67
:1026F000F9019383828384ED93E1958384838091B0
:10270000DD269091DE26A091DF26B091E026841B85
:10271000950BA60BB70B86839783A087B1870E9482
:10272000F66AEC014DB75EB7465F5F4F0FB6F8949F
:102730005EBF0FBE4DBF8DB79EB708970FB6F8941A
:102740009EBF0FBE8DBFADB7BEB711968091F82664
:102750009091F9268C0F9D1FEDB7FEB79283818370
:10276000E091FA26F091FB26868D978D8C1B9D0BB0
:1027700013969C938E93129787EB93E115969C93F7
:102780008E93149785E491E017969C938E931697F9
:102790000E94F66A6C01CC0EDD1EADB7BEB7119675
:1027A0008091F8269091F9268C0D9D1DEDB7FEB70E
:1027B00092838183E091FA26F091FB26868D978D96
:1027C0008C199D0913969C938E9312978EE993E131
:1027D00015969C938E93149781E591E017969C93A0
:1027E0008E9316970E94F66AC80ED91EE090DD26D9
:1027F000F090DE260091DF261091E026C801B70197
:1028000020E13EE040E050E00E94326949015A0177
:1028100080E19EE0AC01249FC001259F900D349F74
:10282000900D1124E81AF90AC7016CE370E00E94C8
:102830000B6900D000D0ADB7BEB711968091F826D5
:102840009091F9268C0D9D1DEDB7FEB79283818383
:10285000E091FA26F091FB26868D978D8C199D09C3
:1028600013969C938E93129789E793E115969C9308
:102870008E93149717969C928E92169719967C9326
:102880006E9318978CE390E0AC01649FC001659F44
:10289000900D749F900D1124E81AF90A1B96FC9272
:1028A000EE921A970E94F66AC80ED91E8DB79EB78F
:1028B0000C960FB6F8949EBF0FBE8DBFC601DF9178
:1028C000CF911F910F91FF90EF90DF90CF90BF902D
:1028D000AF909F908F900895AF92BF92CF92DF926A
:1028E000EF92FF920F931F93DF93CF93CDB7DEB795
:1028F000EC970FB6F894DEBF0FBECDBFB82EA92E51
:10290000082F192F55E1C52ED12CCC0EDD1ED80174
:1029100012966D917C911397C60148E250E00E9497
:10292000726AD8011896EC91F0E0EE0FFF1FE159A2
:10293000FE4F608171817E010894E11CF11CC7018A
:102940000E94136AEDB7FEB73E970FB6F894FEBF2C
:102950000FBEEDBFADB7BEB711968091F82690912E
:10296000F92692838183E091FA26F091FB26868DE9
:10297000978D13969C938E93129785EF93E11596FE
:102980009C938E9314971696BC9216971796AC92BA
:1029900017971996DC92CE921897F801848199279F
:1029A00087FD90951B969C938E931A971D96FC928B
:1029B000EE921C970E94F66A2DB73EB7225F3F4FFA
:1029C0000FB6F8943EBF0FBE2DBFEC960FB6F8942D
:1029D000DEBF0FBECDBFCF91DF911F910F91FF9052
:1029E000EF90DF90CF90BF90AF9008954F925F929D
:1029F0006F927F928F929F92AF92BF92CF92DF920F
:102A0000EF92FF920F931F93DF93CF93CDB7DEB773
:102A100064970FB6F894DEBF0FBECDBFFC01E0583F
:102A2000FF4F208131818CE290E0289F2001299F77
:102A3000500C389F500C11242CEF36E2420E531EDE
:102A4000E090F826F090F926E091FA26F091FB2626
:102A5000068D178DD20150968D919C9151970E94B1
:102A6000B824EDB7FEB738970FB6F894FEBF0FBE87
:102A7000EDBF3196ADB7BEB71296FC92EE921197AC
:102A8000138302832BE734E1358324839783868382
:102A90000E94F66A3C01EDB7FEB738960FB6F8947F
:102AA000FEBF0FBEEDBF8090F8269090F926880EED
:102AB000991ED201AC901196BC9011971296CC90B1
:102AC00012971396DC9013971496EC901497159622
:102AD000FC90159716960C91169717961C911797C0
:102AE00018962C91189719963C9119971A964C9113
:102AF0001A971B965C911B971C966C911C971D96C0
:102B00007C911D971E968C911E971F969C910E94FA
:102B1000D3116301C80ED11CD2019596EC91F0E05F
:102B2000EF70F070EE0FFF1FE35AFE4F608171816E
:102B3000CE0101960E94136AE090F826F090F926E3
:102B4000E091FA26F091FB26068D178DF20182891D
:102B500093890E94B824BC01D2019796AC909797B4
:102B60009696BC9096975C968D919C915D97892BDB
:102B700019F440E250E002C04AE250E0F20185A1BF
:102B800084FD03C020E230E002C021E230E08DB7D6
:102B90009EB742970FB6F8949EBF0FBE8DBFEDB79C
:102BA000FEB73196EC0CFD1CADB7BEB71296FC9289
:102BB000EE9211970C191D09138302838CE394E1A3
:102BC0009583848377836683CE010196918780877E
:102BD000A2861386B486158657874687318B208B4D
:102BE0000E94F66A9C012C0D3D1DEDB7FEB7729652
:102BF0000FB6F894FEBF0FBEEDBFC90164960FB6C5
:102C0000F894DEBF0FBECDBFCF91DF911F910F9122
:102C1000FF90EF90DF90CF90BF90AF909F908F90FC
:102C20007F906F905F904F9008956F927F928F92F8
:102C30009F92AF92BF92CF92DF92EF92FF920F934B
:102C40001F93DF93CF93CDB7DEB76C970FB6F89491
:102C5000DEBF0FBECDBFBC01A9E0CA2ED12CCC0E69
:102C6000DD1EC60144E150E00E94F66989858E327E
:102C700049F5E090F826F090F926E091FA26F091D7
:102C8000FB26068D178D8091290890912A0860E017
:102C900070E00E943F112DB73EB7285030400FB66C
:102CA000F8943EBF0FBE2DBFEDB7FEB73196ADB75E
:102CB000BEB71296FC92EE921197138302832EEC0C
:102CC00034E195C08A3209F070C00E943811BC010D
:102CD000F5ECAF2EF6E2BF2E00E010E03E010894C6
:102CE000611C711CC601DC2CE92EE2EA8E2EE4E1A7
:102CF0009E2E56C0C30148E050E00E94F6696B81E9
:102D00007C818D2D9E2D44E150E00E94F6692DB707
:102D10003EB72C5030400FB6F8943EBF0FBE2DBFCB
:102D2000ADB7BEB711968091F8269091F926800F25
:102D3000911FEDB7FEB792838183E091FA26F0915F
:102D4000FB26868D978D801B910B13969C938E93FB
:102D5000129715969C928E9214971696DC9216975F
:102D60001796EC9217971896DC9218971996EC9292
:102D70001997F501819191915F011B969C938E9318
:102D80001A970E94F66A080F191F69817A812DB778
:102D90003EB7245F3F4F0FB6F8943EBF0FBE2DBF26
:102DA0006115710509F0A6CF31C0E090F826F090CA
:102DB000F926E091FA26F091FB26068D178DC601C3
:102DC00060E070E00E943F11ADB7BEB718970FB634
:102DD000F894BEBF0FBEADBFEDB7FEB731961296E9
:102DE000FC92EE921197138302832EE934E135832E
:102DF0002483978386830E94F66A8C01EDB7FEB721
:102E000038960FB6F894FEBF0FBEEDBFC8016C96A2
:102E10000FB6F894DEBF0FBECDBFCF91DF911F91EB
:102E20000F91FF90EF90DF90CF90BF90AF909F9069
:102E30008F907F906F900895EF92FF920F931F9362
:102E4000CF93DF937C01C0911F08D091200812C05E
:102E50000A811B81C8010E941A6AAC01C701B8012E
:102E60000E94236A892B19F42C813D8107C00990A7
:102E7000D881C02D209761F724EA31E1C901DF91A3
:102E8000CF911F910F91FF90EF900895BC0181E5C4
:102E900091E00E946B6A8091DD269091DE26A091E0
:102EA000DF26B091E0268093250890932608A09312
:102EB0002708B09328080895BC0185E491E00E949A
:102EC0006B6A8091DD269091DE26A091DF26B0917D
:102ED000E0268093210890932208A0932308B093C2
:102EE0002408089500D000D000D0EDB7FEB7319689
:102EF00029ED35E1ADB7BEB712963C932E931197ED
:102F000093838283758364830E949E6A8DB79EB784
:102F100006960FB6F8949EBF0FBE8DBF08952F92F0
:102F20003F924F925F926F927F928F929F92AF9259
:102F3000BF92CF92DF92EF92FF920F931F93DF9396
:102F4000CF93CDB7DEB7C056D0400FB6F894DEBFF2
:102F50000FBECDBF80E06CE046E00E94921B80E097
:102F60006EE571E50E940E1C81E068E046E00E947B
:102F7000921B81E00E94441C0E94501A00D000D095
:102F80008FE396E1ADB7BEB712969C938E931197DF
:102F900085E791E014969C938E9313970E949E6A06
:102FA0000F900F900F900F900E94D91F0E94F02059
:102FB0008AEA9AEA9A8389831C821B821E821D8276
:102FC00018861F821A8619861C861B861E861D86F9
:102FD000188A1F867E010894E11CF11CC70160E479
:102FE00020E030E040E050E001E010E00E94934536
:102FF000C70160E420E030E040E050E00E940A3881
:103000000E944F1A00D089EA96E1EDB7FEB792838D
:1030100081830E949E6A0F900F908091BE2C9091A8
:10302000BF2C8F5F9F4F09F46AC08DB79EB7829700
:103030000FB6F8949EBF0FBE8DBFEDB7FEB73196A9
:103040008FE596E1ADB7BEB712969C938E9311971C
:103050008091AE2C828313828091AF2C8483158261
:103060008091B02C868317828091B12C8087118645
:103070008091B22C828713868091B32C8487158629
:103080008091B42C868717868091B52C808B118A0D
:103090008091B62C828B138A8091B72C848B158AF1
:1030A0008091B82C868B178A8091B92C808F118ED5
:1030B0008091BA2C828F138E8091BB2C848F158EB9
:1030C0008091BC2C868F178E8091BD2C80A311A27D
:1030D0000E949E6AEDB7FEB7B2960FB6F894FEBF97
:1030E0000FBEEDBF00D08CE596E1ADB7BEB712962E
:1030F0009C938E9311970E949E6A0F900F908091DF
:10310000DB2C9091DC2C8F5F9F4F09F468C0EDB7EA
:10311000FEB7B2970FB6F894FEBF0FBEEDBF319663
:103120008FE596E1ADB7BEB712969C938E9311973B
:103130008091CB2C828313828091CC2C8483158246
:103140008091CD2C868317828091CE2C808711862A
:103150008091CF2C828713868091D02C848715860E
:103160008091D12C868717868091D22C808B118AF2
:103170008091D32C828B138A8091D42C848B158AD6
:103180008091D52C868B178A8091D62C808F118EBA
:103190008091D72C828F138E8091D82C848F158E9E
:1031A0008091D92C868F178E8091DA2C80A311A262
:1031B0000E949E6AEDB7FEB7B2960FB6F894FEBFB6
:1031C0000FBEEDBF00D08CE596E1ADB7BEB712964D
:1031D0009C938E9311970E949E6A0F900F908091FE
:1031E000F82C9091F92C8F5F9F4F09F468C0EDB7D0
:1031F000FEB7B2970FB6F894FEBF0FBEEDBF319683
:103200008FE596E1ADB7BEB712969C938E9311975A
:103210008091E82C828313828091E92C848315822B
:103220008091EA2C868317828091EB2C808711860F
:103230008091EC2C828713868091ED2C84871586F3
:103240008091EE2C868717868091EF2C808B118AD7
:103250008091F02C828B138A8091F12C848B158ABB
:103260008091F22C868B178A8091F32C808F118E9F
:103270008091F42C828F138E8091F52C848F158E83
:103280008091F62C868F178E8091F72C80A311A247
:103290000E949E6AEDB7FEB7B2960FB6F894FEBFD5
:1032A0000FBEEDBF00D08CE596E1ADB7BEB712966C
:1032B0009C938E9311970E949E6A0F900F9000D05E
:1032C00082E296E1EDB7FEB7928381830E949E6A07
:1032D0000F900F9080E091E00E940D218E010F5E13
:1032E0001F4FC80168E070E040E150E00E94A26D0D
:1032F00019A200D000D08FE196E1ADB7BEB712960B
:103300009C938E93119714961C930E9313970E947F
:103310009E6A0F900F900F900F90C80168E170E0C7
:103320004EE150E00E94A26D1FA60E943B1100D00A
:1033300000D000D0EDB7FEB7319623EF35E1ADB741
:10334000BEB712963C932E931197138302839583F5
:1033500084830E949E6A9EEA692E9CE2792EEDB7D4
:10336000FEB736960FB6F894FEBF0FBEEDBF28012C
:1033700080EE282E85E1382ED30150968D919C91B8
:1033800051978F5F9F4F39F1F301A080B180C280C8
:10339000D380E480F58006811781208531854285C0
:1033A0005385648575858685978542010E94D31172
:1033B00000D000D0ADB7BEB712963C922E921197B6
:1033C00013964C92139714965C920E949E6A0F90EB
:1033D0000F900F900F90EDE1F0E06E0E7F1EF5E084
:1033E0006F16FDE27F0641F6C05ADF4F0FB6F89424
:1033F000DEBF0FBECDBFCF91DF911F910F91FF9028
:10340000EF90DF90CF90BF90AF909F908F907F9084
:103410006F905F904F903F902F900895CF93DF93E0
:103420000E948F1700D086EC95E1EDB7FEB792832E
:1034300081830E949E6A0F900F900E943550C8EBC6
:10344000D5E10E94082080912B0890912C080196CC
:1034500090932C0880932B0801978051974289F70D
:1034600010922C0810922B0880912D0890912E0814
:10347000019690932E0880932D080197885E9340C3
:1034800001F700D0EDB7FEB7D283C1830E949E6AD8
:1034900010922E0810922D080F900F90D2CF089501
:1034A000F8941092B60016BC8EE387BD92E094BDEE
:1034B00085E085BD85B385BB90936E001092300882
:1034C00010922F0880912F08909130089093320825
:1034D000809331087894089520912F083091300816
:1034E00080912F089091300828173907A9F7C90152
:1034F000089507C022E330E0000021503040E1F79A
:1035000001970097B9F70895BC0140912F08509199
:10351000300880912F089091300848175907A9F773
:1035200020912F083091300880912F089091300819
:1035300028173907A9F7241B350B2617370780F3FF
:10354000089508952091DD263091DE264091DF26F2
:103550005091E0268091DD269091DE26A091DF2615
:10356000B091E026281739074A075B0759F7B901D8
:10357000CA0108951F920F920FB60F920BB60F92C9
:1035800011242F933F934F935F936F937F938F9368
:103590009F93AF93BF93EF93FF9380912F089091E8
:1035A000300801969093300880932F08809131085D
:1035B000909132080196909332088093310880915F
:1035C0003108909132088D379105B9F41092320884
:1035D000109231088091DD269091DE26A091DF26A1
:1035E000B091E0260196A11DB11D8093DD26909338
:1035F000DE26A093DF26B093E0260E94D621892BF9
:1036000011F00E945522FF91EF91BF91AF919F91D0
:103610008F917F916F915F914F913F912F910F907B
:103620000BBE0F900FBE0F901F9018951F920F9218
:103630000FB60F9211241092A5010F900FBE0F909C
:103640001F9018951F920F920FB60F920BB60F9204
:1036500011242F933F934F935F936F937F938F9397
:103660009F93AF93BF93EF93FF93E0919B01F091F2
:103670009C018081E091A601F091A701309709F0AB
:103680000995FF91EF91BF91AF919F918F917F919C
:103690006F915F914F913F912F910F900BBE0F90C3
:1036A0000FBE0F901F9018951F920F920FB60F929A
:1036B00011241092B2010F900FBE0F901F90189519
:1036C0001F920F920FB60F920BB60F9211242F93E9
:1036D0003F934F935F936F937F938F939F93AF939A
:1036E000BF93EF93FF93E091A801F091A90180812E
:1036F000E091B301F091B401309709F00995FF9181
:10370000EF91BF91AF919F918F917F916F915F9159
:103710004F913F912F910F900BBE0F900FBE0F90C6
:103720001F90189590E02DE030E0829FF001839F7C
:10373000F00D929FF00D1124E556FE4FA281B3814A
:103740001C92A481B5816C93A681B78188ED8C937E
:10375000A085B1854C931286148613860895CF9365
:10376000DF93AB0190E02DE030E0829FD001839F9A
:10377000B00D929FB00D1124A556BE4FED012A96B3
:1037800091E00AC09883ED91FC9111978083888124
:103790008823E9F74F5F5F4FFA018491882391F7FF
:1037A000DF91CF910895CF93DF93EB0190E02DE06F
:1037B00030E0829FD001839FB00D929FB00D112405
:1037C000A556BE4F9D01265F3F4F91E00BC0F9010A
:1037D0009083ED91FC9111978083F901808188237A
:1037E000E1F721968881882391F7DF91CF910895A1
:1037F00090E02DE030E0829FF001839FF00D929FDA
:10380000F00D1124E556FE4F81E08287A081B18141
:103810006C933A9680818823E9F7089590E02DE033
:1038200030E0829FF001839FF00D929FF00D1124F4
:10383000E556FE4F74876387089591E09093A50144
:10384000E0919B01F0919C0180838091A5018823E8
:10385000E1F708952091330830E04DE050E0249FD7
:10386000F001259FF00D349FF00D1124E556FE4F19
:1038700091E09287A081B1818C933A9680818823D0
:10388000E9F780E090E00895809333088DE891E0B7
:103890009093EB2D8093EA2D0895DF93CF93CDB7CE
:1038A000DEB7FE01389684E398E060E470E04E8174
:1038B0005F819F010E94656B44E358E08D8190E039
:1038C0002DE030E0829FD001839FB00D929FB00D1C
:1038D0001124A556BE4F9D01265F3F4F91E00CC0BD
:1038E000F9019083ED91FC9111978083F90180811A
:1038F0008823E1F74F5F5F4FFA018081882381F7CA
:10390000CF91DF91089520E09091880880918908F7
:10391000981321E0822F0895CF93DF93EC0140911B
:103920008808E42FF0E0CF0101966AE070E00E9481
:103930001F692091890830E082179307A9F08881D8
:103940009981AA81BB81EE0FFF1FEE0FFF1FE65783
:10395000F74F80839183A283B383842F8F5F8A3054
:1039600008F080E080938808DF91CF910895DF937D
:10397000CF930F92CDB7DEB78091890889832981D3
:1039800089818F5F898389818A3008F019828981D2
:103990008093890830E0220F331F220F331F2657F0
:1039A000374FC9010F90CF91DF9108959093E22690
:1039B0008093E126089581E090E0089581E090E011
:1039C000089585EB91E0089580918608909187088D
:1039D000089586E798E00895AC01615020E00CC09E
:1039E000DA01A20FB11D9C91FA01E60FF11D808151
:1039F0008C93908361502F5F261790F308950F9357
:103A00001F93DF93CF930F92CDB7DEB7882371F169
:103A10000FEF1FEF1093552D0093542D0E94E66970
:103A200060E071E00E941F698093972D8DEC9BEA06
:103A30009093832D8093822D9093492D8093482DD0
:103A40001093532D0093522D8FB78983F8948AE4F5
:103A50009DE260E070E048E050E00E94A26D8AE4E0
:103A60009DE268E00E94EC1C89818FBF0F90CF918E
:103A7000DF911F910F910895CF92DF92EF92FF9205
:103A80001F93DF93CF93CDB7DEB7AB970FB6F89404
:103A9000DEBF0FBECDBF80EB96E30197F1F782E06A
:103AA0000E9439628093472D8C81807E81608C8357
:103AB00082E10E94396220E0892B09F021E0229501
:103AC000220F207E8C818F79822B8C839D819F7C1D
:103AD0008091972D8E838F5F8093972D906C9D831F
:103AE000E091602DF091612D099598878F8385E194
:103AF0000E94426268EE74E00E943E64892B59F095
:103B00008D81837F88608D838FEF9FEF98878F8370
:103B10009A87898713C085E10E944262DE01199667
:103B2000FC0188E001900D928150E1F7CE010996E9
:103B300068E00E94EC1C8D818C608D83E091642D87
:103B4000F091652D09959A8B898BE0916C2DF09100
:103B50006D2D09952B8B3C8B4D8B5E8B6F8B788FEE
:103B6000898F9A8F0E941A628BA70E94EE619AA792
:103B700089A7CE010496BE016F5F7F4F0E949E5EB3
:103B800013E068ECE62EF12C50E2C52E5EE4D52E53
:103B900069817A818B810E94D3598034910519F40F
:103BA00021E030E020C084349105D9F4133021F4B1
:103BB000C6010197F1F713C0123041F484EF91E090
:103BC000F7013197F1F70197D9F709C0113039F4AE
:103BD00080ED97E0F7013197F1F70197D9F7115090
:103BE000B9F620E030E0C901AB960FB6F894DEBF1D
:103BF0000FBECDBFCF91DF911F91FF90EF90DF906F
:103C0000CF9008958091740890917508892B09F4DC
:103C10004DC00E947B62E0918608F0918708608920
:103C20008685978570E00E944E63E0918608F0914A
:103C30008708808990E00E94E961E0918608F09110
:103C40008708A2EBB8E026813781C901FC0188E032
:103C500001900D928150E1F7E0918608F09187087C
:103C6000AAEBB8E022853385C901FC0188E0019008
:103C70000D928150E1F782EB98E068E00E94EC1C25
:103C80008AEB98E068E00E94EC1C85E162EB78E04A
:103C90000E944D6284E16AEB78E00E944D62E091FF
:103CA0007408F091750886E798E0099508950E94D8
:103CB0007B62E0918608F091870860898685978508
:103CC00070E00E944E63E0918608F0918708808939
:103CD00090E00E94E961E0918608F0918708A2EBEC
:103CE000B8E026813781C901FC0188E001900D927E
:103CF0008150E1F7E0918608F0918708AAEBB8E0DF
:103D000022853385C901FC0188E001900D92815024
:103D1000E1F782EB98E068E00E94EC1C8AEB98E007
:103D200068E00E94EC1C85E162EB78E00E944D6245
:103D300084E16AEB78E00E944D62E091E126F09127
:103D4000E22686E798E00995089590918808809189
:103D50008908981719F10E94B71CFC010097F1F02F
:103D6000808191814097D1F40280F381E02DF0931E
:103D70008708E09386080190F081E02D80818770AC
:103D8000813019F40E94571E02C00E94021EE09169
:103D90008608F091870887898D7F878B089580E05A
:103DA00060E070E00E94A51E0895EF92FF921F93BD
:103DB000CF93DF937C01162FEA01623811F40E9441
:103DC000CF1EF70180819181009729F0855892409C
:103DD00009F049C043C080E060E070E040E050E09E
:103DE00020E030E00E94365A89E090E00E94B26DF7
:103DF000182F8AE090E00E94B26D982F812F8B508F
:103E0000803110F49095191318E1812F0E947E598A
:103E100081E00E94675688E00E9414580E94E75F84
:103E200086ED9CE190937F0880937E088CE39DE172
:103E300090937B0880937A0886E798E00E948446F6
:103E400086E59DE20E94F66086E10E94145885E8AE
:103E500092E0F7019183808381E009C0812FBE0148
:103E60000E94A51EF4CFF7011182108283E0DF913A
:103E7000CF911F91FF90EF9008958091CE088F5FB2
:103E80008093CE08815008951F93CF93DF93EC0168
:103E9000162F888580FF1CC0EC81FD813097C1F012
:103EA000D093C508C093C40882E08887CE010696E7
:103EB0000995992787FD90950297029710F013387E
:103EC00029F4CE01BE010E946C1F02C081E08887E8
:103ED000DF91CF911F910895CF92DF92EF92FF92E1
:103EE0000F931F93CF93DF938C017B01C090C40885
:103EF000D090C508DC0118968C911897882341F161
:103F000018961C92C091C208D091C3080BC00C1720
:103F10001D0729F0CE0167E8A8010E94441F0990FF
:103F2000D881C02D209799F7D8011496ED91FC9176
:103F30001597309769F00E151F0551F01093C508BD
:103F40000093C408C801069663E840E050E0099574
:103F5000E091C208F091C3080E171F07A1F4F80101
:103F6000808191819093C3088093C2080EC08081A4
:103F700091818017910731F4D8018D919C919183A3
:103F8000808303C0FC01309791F7D092C508C0929E
:103F9000C408DF91CF911F910F91FF90EF90DF90B8
:103FA000CF9008956091C4087091C5080E946C1F5D
:103FB00008958AE88093CE081092D0081092CF0816
:103FC0001092C3081092C2081092C5081092C4083B
:103FD00008951F93CF93DF9310927109C091C20887
:103FE000D091C30811E00EC08985882341F018875D
:103FF0001986CE0162E840E050E00E94441F09901B
:10400000D881C02D209781F7DF91CF911F9108951E
:1040100080917109882311F00E94E91F2091CF0837
:10402000222309F455C08091D00890E0FC01EE0FE6
:10403000FF1FEE0FFF1FE80FF91FEF52F74F6081D0
:104040006093CD08418152815093CC084093CB08B6
:104050000380F481E02DF093CA08E093C90801962B
:104060008F7190708093D00821502093CF083097A3
:1040700041F58091C2089091C30818C080917109E0
:10408000882311F00E94E91F4091CB085091CC0881
:104090008091C7089091C8086091CD080E94441F84
:1040A000E091C708F091C808808191819093C80879
:1040B0008093C7088091C7089091C808892BF1F6B2
:1040C00007C0613811F481E08087CF010E94441F4E
:1040D000809171092091CF0830E0280F311DC9016E
:1040E0000895809171092091CF0830E0280F311D8B
:1040F000C9010895DC012091CF08203219F421E094
:1041000030E01AC08091D008820F8F718093C6086A
:1041100090E0FC01EE0FFF1FEE0FFF1FE80FF91FED
:10412000EF52F74F608352834183B483A3832F5FA1
:104130002093CF0820E030E0C90108950F931F932A
:104140000091C4081091C5080E94441F1093C5082F
:104150000093C4081F910F910895CF93DF93DC0162
:10416000EB016091C2084091C308862F942F9C01F7
:10417000F90103C00190F081E02DEA17FB07B9F0C7
:104180003097C1F76C9311964C931197B093C30875
:10419000A093C20881E018968C93189717961C92EA
:1041A0001E921697CD0161E8AE010E949E20DF911C
:1041B000CF910895FC01009741F0808581508230B5
:1041C00020F481E0818780937109089520E030E038
:1041D000FC018085882311F021E030E0C9010895B9
:1041E000CF93DF93C1E8D1E004C060E070E00E94AB
:1041F000AD20899199910097C1F7DF91CF910895F2
:10420000CF93DF93EC0102C00E94D21F8991999154
:104210000097D1F7DF91CF910895CF93DF93EC0111
:1042200004C060E070E00E94AD20899199910097F0
:10423000C1F7DF91CF910895DC0112964D915C9109
:10424000139720E030E01FC01496ED91FC91159774
:10425000E20FF31F80818823A1F481E080838D9198
:104260009C911197AC01249FC001259F900D349F14
:10427000900D112416962D913C911797280F391FF8
:1042800007C02F5F3F4F24173507F0F220E030E0E2
:10429000C9010895DC0116962D913C91179712964D
:1042A000ED91FC91139740E050E01DC026173707B1
:1042B00099F41496ED91FC911597E40FF51F808108
:1042C000181614F4815080831496ED91FC91159783
:1042D000E40FF51F808108958D919C911197280F0F
:1042E000391F4F5F5F4F4E175F0700F38FEF089541
:1042F000FC01AB01668177814617570718F420E06F
:1043000030E017C0A0E08081918122813381FC01DF
:10431000E29FC001E39F900DF29F900D1124680F62
:10432000791F4617570708F0A1E081E0A8272A2F38
:1043300030E0C90108950F931F938C01FC01428165
:1043400053818481958160E070E00E94596AF80190
:104350002281338180819181A901489F9001499FE9
:10436000300D589F300D11248681978160E070E0F8
:10437000A9010E94596A1F910F91089520E030E031
:10438000FC0186819781892B11F421E030E0C9017D
:104390000895FC012281338180819181280F391F8A
:1043A000C9010895FC0180819181089520917209CD
:1043B000309173092115310511F021E030E0C90178
:1043C00008958091720990917309892B19F420E066
:1043D00030E004C02091740930917509C901089535
:1043E0008091720990917309892B29F410927509B3
:1043F0001092740908950E946C1ABC01E091720930
:10440000F09173094281538180819181480F591F36
:10441000461B570B0CC02281338180819181280F6C
:10442000391F261B370B2417350708F4A901048010
:10443000F581E02D309779F7460F571F5093750996
:10444000409374090895CF93DF93EC01E0917209D2
:10445000F09173098E179F0741F48C819D81909391
:1044600073098093720914C0FC01309731F0848184
:1044700095818C179D07C1F707C01D821C821F8282
:104480001E82DF91CF9108958C819D8195838483D5
:104490000E94F021F2CFFC0180819181860F971F4D
:1044A000918380830E94F021089580EF91E00E9423
:1044B000DA200895EF92FF920F931F93CF93DF932B
:1044C0007C01FC0180819181009729F08A3591055A
:1044D00009F06DC00BC010927309109272098AE541
:1044E00090E0F7019183808381E065C0673849F5EA
:1044F0009A01E0917209F091730903C00480F5817B
:10450000E02D309741F38681978182179307B1F3AD
:10451000E0937209F09373090FC016968D919C91E8
:1045200017978217930711F0FD0106C014968D911D
:104530009C91159795838483A481B581109769F721
:10454000CECF623861F6C0917209D091730900E054
:1045500010E02AC0CE010E948764892B01F18E8170
:104560009F8168E8AE010E947A20892BA1F41F8206
:104570001E828C819D810115110521F0F801958322
:10458000848304C090937309809372091D821C82F6
:104590000E94F021D8CF80EF91E00E94DA208E01B6
:1045A0008C819D819C01E9012097A1F698CFF701AC
:1045B0001182108283E0DF91CF911F910F91FF90C4
:1045C000EF900895CF93DF93EC0180EF91E00E948C
:1045D000DA208E819F81892B69F0E0917209F09138
:1045E000730906C0EC17FD07A9F00480F581E02DE2
:1045F0003097C1F78091C4089091C5089F838E833E
:1046000080917209909173099D838C83D093730973
:10461000C09372090E94F021DF91CF9108950F930A
:104620001F938C010E949E64C8010E94E2221F9188
:104630000F9108950F931F938C010E946864C80125
:104640000E94E2221F910F9108950F931F938C01F6
:104650000E94A964C8010E94E2221F910F9108954F
:10466000FC015381560F5093EA26272F33274281AE
:10467000420F4093E926A181A093E826E081E093D0
:10468000E726842F90E08217930748F48A2F8F5FE4
:104690008093E826882319F4EF5FE093E726852FBF
:1046A00090E070708617970790F4842F8F5F809347
:1046B000E926882361F48091E8268F5F8093E826BD
:1046C000882329F48091E7268F5F8093E726089559
:1046D0009C0141505040460F571FFB010EC0708196
:1046E00060E08181DB01A80FB11D2A0F3B1F2A1753
:1046F0003B0710F42F5F3F4F3296E417F50778F32E
:10470000E417F50749F4908180E0280F391F281736
:10471000390710F42F5F3F4FC90108959C01AB0189
:1047200080E090E0B9010E946823282F892F922F02
:10473000089580E090E06CE577E248E250E00E9466
:104740006823009719F42FEF3FEF02C0382F292F6D
:10475000C90108950F931F931091602700E0909175
:104760007709091B110990916127090F111D980103
:10477000280F311DC90164E677E240E250E00E9453
:1047800068236091770970E06C57784DA8010E940A
:104790006823009719F42FEF3FEF02C0382F292F1D
:1047A000C9011F910F9108958AE30E94AA230895D9
:1047B00086E00E94AA23089581E10E94AA23089519
:1047C0000F931F93CF93DF93182F092F40917A09EE
:1047D00050917B09BCE24F5F5F4F8DE74030580737
:1047E00010F040E050E1342F252FA0E00EC0AB9F29
:1047F000F0011124E450F94D85A1882329F0808926
:1048000091898217930739F3AF5FA23081F7409304
:104810007A0950937B0910927909E0E0F0E020E0FA
:104820003CE21AC0239FD0011124A450B94D9596A3
:104830008C919597882321F420937909FD0110C06C
:10484000873049F4309731F096969C91969786A1DF
:10485000891708F4FD012F5F223020F32093790996
:10486000309771F182E085A380917C09808F8091DF
:104870007D09818F80917E09828F80917F09838F4E
:1048800084EC94E0978F868F91A380A381E090E0E1
:10489000958F848F17A281E086A383E084A312A260
:1048A00080E183A3508B418B738B628BEF01212FAF
:1048B000302FC901DC0180E10D9009928150E1F7B0
:1048C000CF01DF91CF911F910F910895AC0110920C
:1048D000790920E013C0E22FF0E0322F3F5FEE0FA6
:1048E000FF1FE85AF84D808191818417950729F4BC
:1048F00020937909118210820895232F223058F3D2
:10490000209379090895AC011092790920E012C032
:10491000E22FF0E0322F3F5FEE0FFF1FE85AF84D15
:1049200080819181892B29F42093790951834083D7
:104930000895232F223060F3209379090895BC0154
:104940008091FA269091FB2644960E943023E091B4
:10495000FA26F091FB268091E726848B8091E82649
:10496000858B8091E926868B8091EA26878B089536
:10497000282F892F922F0895EF92FF920F931F9364
:104980009C0144275527F22EE32E00E010E0362F3D
:10499000272F40E050E0A90133272227E22AF32AFB
:1049A000042B152BB701C8011F910F91FF90EF90B9
:1049B0000895FC014091E5265091E6262CE53CE265
:1049C000241B350B621773070CF49B011216130698
:1049D00064F420935E2C30935F2CE417F50729F0E4
:1049E000CA01BF01A9010E943E6A089582E0809336
:1049F0007809A09177092A2F30E0F901EC57F84D9A
:104A00008181682F70E0F3E0660F771FFA95E1F778
:104A1000695F7F4F42E0285D3F4F3CC0F901E80FDE
:104A2000F91FE45AF84D8081882319F0813019F478
:104A30002EC04F5F2FC090E0807C90708038910531
:104A400049F0803C910549F08034910501F540938F
:104A5000780909C04093780908C04093780980918B
:104A600074278F3F11F481E00895242F30E040E057
:104A700050E02A0F311D411D511D285D3F4F4F4F02
:104A80005F4F84E062E00E94FC3482E008958181FF
:104A90008E5F480F842F90E0681779070CF0BECF27
:104AA0004093780980E00895CF92DF92EF92FF92D1
:104AB0000F931F93CF93DF93C091FA26D091FB26DB
:104AC000843009F4B1C208E917E21093F926009383
:104AD000F8261093E6260093E526833099F48DA1FD
:104AE000282F30E02F7030702330310529F48C8D61
:104AF0009D8D892B09F499C02230310511F00C9459
:104B0000FC2D82C0823009F094C01092E4261092ED
:104B1000E32610925F2C10925E2C80917F098F5FAC
:104B200080937F09882399F480917E098F5F809319
:104B30007E09882361F480917D098F5F80937D09D0
:104B4000882329F480917C098F5F80937C092DA1B3
:104B5000273011F0253051F48EA18F5F8EA3883756
:104B600011F00C94FC2D1DA20C94FC2D222311F4A9
:104B70000C94FC2D8C8D9D8D892B09F452C08EA137
:104B800081508EA38F5F11F00C94FC2D3FA1383023
:104B900029F02150223048F4353039F41DA280E844
:104BA0008093F3260E942C2FD6C6353010F080E378
:104BB00007C083E090E002C0880F991F3A95E2F7A2
:104BC0008EA38FA18F5F8FA38DA190E08F709070C7
:104BD0008330910501F1843091054CF481309105C9
:104BE00009F44DC4029711F00C94FC2D0DC08630D1
:104BF000910509F4C4C68830910509F4C0C604972C
:104C000011F00C94FC2DBBC6E0917709F0E0EC5755
:104C1000F84D15863BC484E08093F3260E942C2F28
:104C2000DCC62F70233009F0E7C788E08093F326B5
:104C300086C6853019F5E091F626F091F726808931
:104C40009189892B09F4D8C71092FB261092FA2675
:104C5000C8010C979093F9268093F8269093E62646
:104C60008093E52610925F2C10925E2C1092E42621
:104C70001092E32688E08093F326D4C180915C27CC
:104C8000807F803609F0B8C79091602780E020913E
:104C90006127AC01420F511D9A018091E32690914A
:104CA000E4268417950708F4A7C7285D3F4F309383
:104CB000E4262093E326809164278F3F09F49CC764
:104CC000C801849760E840E050E00E94EC43892BE3
:104CD00009F044C0C80184970E9441448823F1F53B
:104CE000809174278F3F09F087C7809175278230A4
:104CF00009F082C78091762790917727892B09F058
:104D00007BC78091782790917927892B09F074C708
:104D100080917A2790917B27892B09F06DC780912C
:104D20007C2790917D27892B09F066C780917E278B
:104D300090917F27892B09F05FC780918027909100
:104D40008127892B09F058C780918227882309F091
:104D500053C780918327813009F04EC782E697E2DE
:104D60009093F5268093F426109277091092760995
:104D7000E091F426F091F52680818B3209F44BC046
:104D80008C3248F4863009F4BAC1813109F4B4C0D8
:104D9000882389F06BC08A3309F474C08B3320F404
:104DA0008C3209F063C028C78B3309F425C78C33D4
:104DB00009F05CC006C08091760980FD57C0816013
:104DC00009C08091760981FF04C086FD4FC08064D0
:104DD00001C08260809376090E94F624813009F434
:104DE0000BC7813018F0823019F60EC72091770971
:104DF000E22FF0E0CF018C57984D9093F5268093E9
:104E0000F426285FFC018181880F880F880F280F06
:104E100020937709ADCF8091760982FD27C0846009
:104E20008093760990917709E92FF0E0DF01AC5784
:104E3000B84D13968C911397882349F0BA969F0129
:104E4000442737FD4095542F84E060E018C0B093AC
:104E5000F526A093F426985FEC57F84D8181880FD2
:104E6000880F880F980F9093770982CFEC55F742FF
:104E70009F01442737FD4095542F84E061E00E9454
:104E8000FC34C2C60E94D4238F5F9F4F09F0B4C682
:104E9000E0917709F0E0EC57F84D80810E947D2F7A
:104EA000E0917709F0E0EC57F84DE081E538C1F08A
:104EB000E63818F4E038A1F410C0E73829F0E738F4
:104EC00048F0E83869F403C00E94D3400DC00E9446
:104ED000723F0AC00E94A13A07C00E94CE3504C0AA
:104EE0001092E4261092E3268091E3269091E42626
:104EF000892B09F481C688C68091E3269091E42627
:104F0000C0979093E4268093E3268CE897E29093F1
:104F1000F9268093F826E0917709F0E0EC57F84DF8
:104F200086819781892B31F00E94DC238F5F9F4F10
:104F300009F062C6E0917709F0E0EC57F84D828104
:104F40009381892B09F458C680E69CE29093F7265A
:104F50008093F62648C02889398921153105F1F159
:104F600080917709E82FF0E0EC57F84D828193812A
:104F70008217930799F52A893B892115310529F074
:104F8000808191818217930749F588819981892BC6
:104F9000E1F48A819B81892BC1F48C819D81892BCD
:104FA000A1F48E819F81892B81F488859985892B35
:104FB00061F48A859B85892B41F48C859D85892B9D
:104FC00021F48E859F85892BC1F084E697E2BE018E
:104FD00040E150E00E94316A009779F06996D093E1
:104FE000F726C093F626C091F626D091F726BCE2AC
:104FF000C239DB0708F4AFCFFFC51092FB26109231
:10500000FA2682E08093F3268CE897E29093F926C3
:105010008093F8269093E6268093E52610925F2CE5
:1050200010925E2C0E942C2F20915E2C30915F2CD0
:105030002115310509F4E0C5C901C0969093E42615
:105040008093E326285F3F4F3093602788528093F8
:105050006127A091F626B091F72654968C9154972B
:105060008093632781E180936227E0917709F0E0E4
:10507000EC57F84D348325831782168250968D9114
:105080009C9151979183808352968D919C915397D7
:1050900093838283A4E7B7E22091F6263091F72626
:1050A000C901FC0180E101900D928150E1F784E695
:1050B00097E264E777E20E94FA4288E997E29093E8
:1050C000F9268093F82680917709C82FD0E0CC5735
:1050D000D84D0E94DC23809590959F838E8380918C
:1050E0007709E82FF0E0EC57F84D86819781892BFE
:1050F00009F078C58FEF9FEF9783868373C50E9471
:10510000D8238F5F9F4F09F077C580917709082FCB
:1051100010E00C57184DD8011296ED90FC901397A3
:10512000E114F10409F468C5CD90DC90C114D104F8
:1051300009F462C5CCEFD6E28DA18823A1F088895D
:105140009989E816F90679F48A899B89C816D906DF
:1051500051F484E697E2BE0140E150E00E94316ADA
:10516000009709F4B0C1AC96B7E2C832DB0721F36F
:1051700018F3F80185858F738230F1F4F09282097B
:10518000E09281091092790913C0E42FF0E0EE0F4C
:10519000FF1FE85AF84D20918109309182098081E2
:1051A00091812817390709F489C04F5F4093790925
:1051B00040917909423048F380917709E82FF0E077
:1051C000DF01AC57B84D1D968C911D9782FD14C51B
:1051D00084E11D968C931D978CE390E09093E426D8
:1051E0008093E326FD0180E5848797811B968C914F
:1051F0001B9717968C931797938796811A968C9185
:105200001A9716968C9316979287958119968C917A
:10521000199715968C931597918794819093790996
:1052200018968C91189714968C93149790871B96C8
:105230008C911B978F5F1B968C931B978823C1F4CF
:105240001A968C911A978F5F1A968C931A978823C7
:1052500079F419968C9119978F5F19968C931997F9
:10526000882331F418968C9118978F5F18968C9339
:10527000E0917709F0E0DF01AC57B84D2D913C91FA
:1052800011973093820920938109FD0182819381D6
:105290009183808313963C932E931297E4E7F7E271
:1052A000DF01509780E10D9001928150E1F784E693
:1052B00097E264E777E20E94FA426EC4109279099D
:1052C000C0E0D0E04CE250E03CE225C0822F90E00C
:1052D000849FF001859FF00D949FF00D1124E45000
:1052E000F94D85A1882339F48CE2289FE00111242F
:1052F000C450D94D14C0873059F4209721F096A19D
:105300008EA1891728F4239FE0011124C450D94DA0
:105310002F5F20937909209179092230B8F22097E4
:1053200009F46AC4D093FB26C093FA2683E08EA3C7
:105330008CA31AA284E08BA31FA2E0917709F0E06E
:10534000EC57F84D82819381998B888B8081918174
:105350009B8B8A8BDE01E4E6F7E280E101900D92FF
:105360008150E1F781E08DA380917C09888F809145
:105370007D09898F80917E098A8F80917F098B8F2B
:1053800081E090E09D8F8C8FE0917709F0E0EC5701
:10539000F84D87818F8BE0917709F0E0EC57F84D5D
:1053A00086818E8BE0917709F0E0EC57F84D85818E
:1053B0008D8BE0917709F0E0EC57F84D84818C8B70
:1053C00081E090E00E949F24E0917709F0E0EC57A3
:1053D000F84D848590E0807F9070813591050CF4C4
:1053E0004EC01092790935C0F901E45AF84D84ADE8
:1053F00080938009882309F442C0813021F44F5FF3
:105400004093790926C08230C1F485AD8430A9F477
:1054100036AD20E087AD90E0822B932B90938209EC
:1054200080938109F4E0853C9F0710F084EC94E0C0
:105430009F8F8E8F99A388A322C080917909E82F2E
:10544000F0E0E756F84DE081EE23C9F0E80FE09375
:10545000790940917909242F30E0E0917709F0E053
:10546000EC57F84D848582958F7090E00597880FF2
:10547000991F880F991F281739070CF4B5CFE091B1
:105480007709F0E0EC57F84D80E18587E0917709E6
:10549000F0E0DF01AC57B84D1D968C911D978260EE
:1054A0001D968C931D97FD0182E0848B84E0858B93
:1054B000868B84EC878B80E490E09093E426809345
:1054C000E32680E628C3D093FB26C093FA261092E9
:1054D000F32680917709E82FF0E0DF01AC57B84D53
:1054E0001D968C911D9782FF03C01DA280E2ABC266
:1054F0001C968C9182958F70880F880F8093790904
:105500002091E3263091E42628523040281B3109AF
:105510003093E4262093E3268DA190E08F70907065
:105520008230910539F4EC57F84D85858F738231BF
:1055300049F42FC0019731F4EC57F84D85858F73EE
:10554000823039F1232B59F4E0917709F0E0EC57E0
:10555000F84D858590E083709070892BD1F0809113
:105560007709E82FF0E0EC57F84D94818C89981773
:1055700061F495818D89981741F496818E899817E9
:1055800021F497818F89981721F0858581FD77CF48
:10559000AFC2E0917709F0E0EC57F84D858584FFC4
:1055A00052C06C8D7D8D6115710509F44CC0CE0122
:1055B00048960E94302380917709E82FF0E0EC575D
:1055C000F84D20858091E7262817E9F5918580918F
:1055D000E8269817C1F592858091E926981799F5E4
:1055E00093858091EA26981771F5288F8091E82697
:1055F000898F8091E9268A8F8091EA268B8F8FA1EF
:105600008823D1F42AA19CA18EA1981B822F869574
:1056100086958695981B392F320F3AA38BA1282F98
:1056200026952695821B97FD9195890F8BA336951C
:1056300036953695830F8CA381E08093F3268CA159
:105640008EA31D8E1C8E8DA1282F30E0C9018F7076
:1056500090708430910509F4FBC18530910564F4A4
:105660008230910509F43DC0833091050CF0D5C01E
:10567000019709F0C1C210C08630910509F430C20B
:10568000863091050CF408C28730910509F430C2C8
:10569000089709F0B1C2D1C18091F32680FF16C0EE
:1056A00083E08DA380E48093F3261D8E1C8E2091D1
:1056B000E3263091E4262115310509F43CC182E44A
:1056C0008093F326C9010E949F2435C1E091770998
:1056D000F0E0EC57F84D85858F73823009F08CC26D
:1056E000CECE8091F32680FF8DC080917709E82F80
:1056F000F0E0EC57F84D85858F73823109F082C058
:10570000848590E0807F9070813591050CF44EC0C7
:105710001092790935C0F901E45AF84D84AD8093AF
:105720008009882309F442C0813021F44F5F4093FF
:10573000790926C08230C1F485AD8430A9F436AD34
:1057400020E087AD90E0822B932B90938209809389
:10575000810924E0853C920710F084EC94E09F8F4F
:105760008E8F99A388A322C080917909E82FF0E059
:10577000E756F84DE081EE23C9F0E80FE093790990
:1057800040917909242F30E0E0917709F0E0EC575F
:10579000F84D848582958F7090E00597880F991F4A
:1057A000880F991F281739070CF4B5CF83E08DA314
:1057B000E0917709F0E0EC57F84D84818C8BE09113
:1057C0007709F0E0EC57F84D85818D8BE0917709F2
:1057D000F0E0EC57F84D86818E8BE0917709F0E090
:1057E000EC57F84D87818F8B81E090E00E949F24D9
:1057F00082E48093F3261D8E1C8E1092E426109274
:10580000E32699C080E28093F3260E942C2FE0913A
:10581000FA26F091FB2615A2CFCC80917709E82FCC
:10582000F0E0EC57F84D858580FF25C024FD23C0AE
:105830008C8D9D8D892B09F0DFC18091E32690919D
:10584000E42601960E949F242091F326822F8061F6
:105850008093F3268091E3269091E426892B19F01A
:1058600022612093F3260E942C2F81E090E09D8FEF
:105870008C8F88E082C085FF25C0328920E0838933
:1058800090E0282B392B8091F8269091F926820FF1
:10589000931F9093F9268093F826E0917709F0E022
:1058A000EC57F84D328920E0838990E0282B392B82
:1058B0008091E3269091E426821B930B9093E4263B
:1058C0008093E3262091E3263091E42621153105CB
:1058D00059F08DA184FD08C08091F32682608093E9
:1058E000F326C9010E949F24E0917709F0E0EC576C
:1058F000F84D968580E02785820F911D909382094F
:105900008093810928A139A12817390710F0892B24
:1059100021F430938209209381098091810990912B
:1059200082099F8F8E8F8091F32690E08370907014
:10593000892B09F461C110925F2C10925E2C0E9499
:105940002C2F8091F326282F85FF0CC010925F2CFE
:1059500010925E2C1DA2E0917709F0E0EC57F84D13
:1059600084E1CCC084FF12C010925F2C10925E2C98
:1059700081E090E09D8F8C8F84E08DA31FA2E09149
:105980007709F0E0EC57F84D81E1B8C080915E2CCA
:1059900090915F2C892B01F120FF02C01D8E1C8E7F
:1059A0008C8D9D8D0097A1F42E8D3F8D80915E2C66
:1059B00090915F2C2817390720F430935F2C2093A7
:1059C0005E2C80915E2C90915F2C9D8F8C8F04C0FB
:1059D00090935F2C80935E2C1FA28091E52690917E
:1059E000E6269093F9268093F82680915E2C90917C
:1059F0005F2C892B81F08C8D9D8D009761F0CC966A
:105A00009093E4268093E326E0917709F0E0EC5749
:105A1000F84D88E110C08091F32681FFEDC08CE342
:105A200090E09093E4268093E326E0917709F0E0FC
:105A3000EC57F84D80E1858768C08091F32680FFA0
:105A4000DBC01DA280E18093F3260E942C2FD4C0DE
:105A50008091E3269091E426009711F00E949F2404
:105A6000E0917709F0E0EC57F84D85859091F326A9
:105A700080FF0BC090FF06C087E08DA31EA21D8E85
:105A80001C8E1DC086E08DA31AC090FF22C085E049
:105A90008DA31D8E1C8EB0C08091E3269091E426CC
:105AA000009711F00E949F24E0917709F0E0EC57F5
:105AB000F84D858580FF0DC087E08DA31EA281E093
:105AC00090E00E949F2480E18093F3260E942C2F77
:105AD0000FC08091E3269091E426892B49F48CC075
