:100000000C9418040C9437040C9437040C943704A3
:100010000C9437040C9437040C9437040C94370474
:100020000C9437040C9437040C94B5130C943704D7
:100030000C9437040C9437040C9437040C94370454
:100040000C94121E0C9437040C9437040C9437044F
:100050000C94A01E0C944C160C9437040C9437048A
:100060000C9437040C9437040C9437040C94370424
:100070000C9437040C9437040C9437040C94370414
:100080000C9437040C9437040C9437040C94370404
:100090000C9437040C94370453797374656D206F96
:1000A0006E6C696E652E0A000A0A0A2A2A2A2A2A12
:1000B0002A2A2A424F4F54494E4720434F4E544913
:1000C0004B492A2A2A2A2A2A2A2A2A0A0025632070
:1000D0006973206E6F7420612076616C6964206F93
:1000E0007074696F6E21206820666F72206D656E76
:1000F000750A0D0020202A204F70657261746573A7
:10010000206F6E206368616E6E656C2025640A0D39
:10011000004F757470757420726177203830322EFC
:1001200031352E34206672616D65730A0D20006EC4
:100130006F7420006465636F6D7072657373203631
:100140006C6F7770616E20686561646572730A0D0B
:1001500020202A2057696C6C20006E6F7420006389
:1001600068616E6765206C696E6B2D6C6F63616C86
:100170002061646472657373657320696E7369646A
:1001800065204950206D657373616765730A0D20A2
:10019000202A2057696C6C20006E6F7420007365F4
:1001A0006E642064617461206F7665722052460A25
:1001B0000D20202A2057696C6C20006E6F7420007F
:1001C00043757272656E746C79204A61636B646109
:1001D000773A0A0D20202A2057696C6C200053655D
:1001E0006C656374203830322E31352E34204368EC
:1001F000616E6E656C20696E2072616E676520317C
:10020000312D3236205B25645D3A20004A61636BF4
:10021000646177206E6F77206361707475726573A7
:1002200020726177206672616D65730A0D004A6104
:10023000636B64617720646F6573206E6F742063F5
:1002400061707475726520726177206672616D6588
:10025000730A0D004A61636B646177206E6F7720CB
:10026000706572666F726D7320366C6F7770616E39
:10027000207472616E736C6174696F6E730A0D0025
:100280004A61636B64617720646F6573206E6F747D
:1002900020706572666F726D20366C6F7770616E5C
:1002A000207472616E736C6174696F6E0A0D004A1E
:1002B00061636B646177206E6F7720696E206E6575
:1002C00074776F726B206D6F64650A0D004A61630D
:1002D0006B646177206E6F7720696E20736E69663C
:1002E000666572206D6F64650A0D000A0D496E70B7
:1002F000757420746F6F206C6F6E67210A0D000A91
:100300000D496E76616C696420696E7075740A0DB2
:10031000002A2A2A2A2A2A2A2A2A2A2A2A2A2A2A67
:100320002A2A2A2A2A2A2A2A2A2A2A2A2A2A2A2A2D
:100330002A2A2A2A2A2A2A2A2A2A2A0A0D002A208E
:10034000796F75722063686F696365206F6E206BCB
:100350006579626F6172642E202020202020202089
:10036000202020202020202A0A0D002A204D616B09
:10037000652073656C656374696F6E2061742061BC
:100380006E792074696D652062792070726573736F
:10039000696E67202A0A0D002A20202020202020B4
:1003A000202020202020202020202020202020204D
:1003B000202020202020202020202020202020203D
:1003C000202A0A0D002A202075202020202020200D
:1003D0002020202020202020537769746368207417
:1003E0006F206D6173732D73746F726167652A0A74
:1003F0000D002A20207220202020202020202020D4
:100400002020202020546F67676C65207261772060
:100410006D6F6465202020202020202A0A0D002AEC
:1004200020203620202020202020202020202020B6
:100430002020546F67676C6520366C6F7770616E33
:1004400020202020202020202A0A0D002A2020639E
:100450002020202020202020202020202020205369
:100460006574205246206368616E6E656C202020A2
:1004700020202020202A0A0D002A20206E20202063
:1004800020202020202020202020202053657420A0
:10049000746F206E6574776F726B206D6F6465206A
:1004A00020202A0A0D002A2020732020202020202E
:1004B00020202020202020202053657420746F20CD
:1004C000736E6966666572206D6F64652020202AF0
:1004D0000A0D002A20206D2020202020202020200E
:1004E0002020202020205072696E74206375727263
:1004F000656E74206D6F6465202020202A0A0D002F
:100500002A2020682C3F202020202020202020206E
:100510002020205072696E742074686973206D65A4
:100520006E75202020202020202A0A0D002A204D30
:1005300061696E204D656E753A20202020202020B4
:1005400020202020202020202020202020202020AB
:100550002020202020202A0A0D002A2020202020D0
:10056000202020202020202020202020202020208B
:10057000202020202020202020202020202020207B
:100580002020202A0A0D000A0A0D2A2A2A2A2A2AAD
:100590002A2A2A2A204A61636B646177204D656E9E
:1005A00075202A2A2A2A2A2A2A2A2A2A2A2A2A2A6A
:1005B0002A2A2A2A0A0D0001010100020101000372
:1005C0000101000401010006010100070101000A08
:1005D0000101000B0101000C0101000D0101000EE1
:1005E00001010011010100140101001601010002C6
:1005F00002010001010200020102000301020004E5
:10060000010200050102001B0201000101010102BB
:1006100001010103010101040101010501010101C1
:100620000102010201020103010201000101FD02B8
:100630000101FD010101FD060101FD030101FD04B0
:100640000101FD7261776D6F64650050414E494450
:100650003A203078424141440041746D656C00009D
:1006600000000012010002EF020140EB0321200014
:10067000100102030109028D000401008032080B01
:1006800000020202FF0009040000010202FF00054F
:1006900024001001052401000104240200052406A1
:1006A00000010705830308000109040100020A0094
:1006B000000007058102400000070502024000001B
:1006C000080B0202020201000904020001020201F9
:1006D0000005240010010524010303042402000581
:1006E00024060203070584032000FF090403000217
:1006F0000A00000007058502200000070506022009
:100700000000120100020202FF40EB03192000105A
:1007100001020301090243000201008032090400C2
:1007200000010202FF000524001001052401000160
:1007300004240200052406000107058303080001C4
:1007400009040100020A00000007058102400000C0
:10075000070502024000001201000200000040EB09
:10076000032F2000100102030109022000010100F3
:10077000803209040000020806500007058102408B
:1007800000000705020240000012010002020C07EF
:1007900040EB0321200010010203010902200001A7
:1007A000010080320904000002020C0700070581E5
:1007B00002400000070502024000000C03410074E3
:1007C000006D0065006C00220352005A0052004187
:1007D00000560045004E0020005500530042002006
:1007E00000440045004D004F000C0331002E003046
:1007F000002E0030000403090441544D454C2020D4
:1008000020525A524156454E55534220444F43536D
:1008100020302E3030008000021F000000224156A0
:100820005220466C617368204D656D6F72792200AD
:1008300011241FBECFEFD0E2DEBFCDBF13E0A0E09A
:10084000B1E0E6E7F8E900E00BBF02C007900D92C7
:10085000A232B107D9F714E1A2E2B3E001C01D92C0
:10086000A93EB107E1F70E9439040C94394C0C946D
:10087000000011240E9423310E94E21500D088EA72
:1008800090E0EDB7FEB7928381830E94B9480F9044
:100890000F900E942C240E94432584E591E060E0A3
:1008A00070E00E94002589E191E060E070E00E9424
:1008B000002581E391E060E070E00E9400258EE673
:1008C00091E060E070E00E94002500D088E990E0AF
:1008D000EDB7FEB7928381830E94B9480F900F90C5
:1008E0000E9436310E945B24FDCF76988AE0809387
:1008F000B50C089500D087E895E0EDB7FEB7928378
:1009000081830E94B9488AE595E0EDB7FEB79283EE
:1009100081830E94B9488DE295E0EDB7FEB79283DE
:1009200081830E94B94880E095E0EDB7FEB79283DD
:1009300081830E94B94883ED94E0EDB7FEB79283BE
:1009400081830E94B94886EA94E0EDB7FEB79283AE
:1009500081830E94B94889E794E0EDB7FEB792839E
:1009600081830E94B9488CE494E0EDB7FEB792838E
:1009700081830E94B9488FE194E0EDB7FEB792837E
:1009800081830E94B94882EF93E0EDB7FEB792836E
:1009900081830E94B94885EC93E0EDB7FEB792835E
:1009A00081830E94B94888E993E0EDB7FEB792834E
:1009B00081830E94B9488BE693E0EDB7FEB792833E
:1009C00081830E94B9488EE393E0EDB7FEB792832E
:1009D00081830E94B94881E193E0EDB7FEB792832D
:1009E00081830E94B9480F900F9008951F93CF9371
:1009F000DF93282F8091270390912803019709F016
:100A000060C02A3039F02D3029F08091230328303E
:100A1000E9F537C010912303E12FF0E0EC5DFC4FC6
:100A2000108284E293E00E943E48EC01112319F009
:100A30008B3091051CF0CB31D1056CF000D08FEFDD
:100A400092E0ADB7BEB712969C938E9311970E9419
:100A5000B9480F900F90209779F08C2F0E94621A5E
:100A600089E090E06C2F0E942F4BFE01E0956E2FE5
:100A70008AE090E00E942F4B1092280310922703E7
:100A800095C1882309F492C1815018C0823080F04A
:100A9000109228031092270300D08BEE92E0ADB79E
:100AA000BEB712969C938E9311970E94B94891C03D
:100AB000E82FF0E0EC5DFC4F20838F5F80932303F1
:100AC00075C1283631F1293694F4263309F440C033
:100AD00027333CF42A3009F469C12D3009F052C1A2
:100AE00065C12F33B1F0233609F04CC175C02237F0
:100AF00009F44EC023373CF42D3609F489C02E3654
:100B000009F040C116C0233739F0253709F03AC142
:100B10000CC10E947A044AC100D08DEC92E0EDB77E
:100B2000FEB7928381830E94B94880911B14897F0C
:100B30004EC000D08FEA92E0ADB7BEB712969C933C
:100B40008E9311970E94B94880911B1486603FC014
:100B500080911B1480FF0DC000D080E892E0EDB7BB
:100B6000FEB7928381830E94B94880911B148E7FC7
:100B70002EC000D084E592E0ADB7BEB712969C932C
:100B80008E9311970E94B94880911B1481601FC0F9
:100B900080911B1483FF0DC000D08EE292E0EDB770
:100BA000FEB7928381830E94B94880911B14877F8E
:100BB0000EC000D08CE092E0ADB7BEB712969C9309
:100BC0008E9311970E94B94880911B14886080937E
:100BD0001B140F900F90EAC00E945C1A00D000D046
:100BE000EDB7FEB731962EED31E0ADB7BEB7129638
:100BF0003C932E931197828313820E94B94881E01F
:100C000090E0909328038093270310922303CAC097
:100C100000D080EC91E0EDB7FEB7928381830E9413
:100C2000B94880911B140F900F9081FD0DC000D02A
:100C30008BEB91E0ADB7BEB712969C938E93119754
:100C40000E94B9480F900F9000D08EE991E0EDB767
:100C5000FEB7928381830E94B94880911B140F9044
:100C60000F9082FD0DC000D089E991E0ADB7BEB70D
:100C700012969C938E9311970E94B9480F900F90F3
:100C800000D08FE591E0EDB7FEB7928381830E949B
:100C9000B94880911B140F900F9080FD0DC000D0BB
:100CA0008AE591E0ADB7BEB712969C938E931197EB
:100CB0000E94B9480F900F9000D084E391E0EDB707
:100CC000FEB7928381830E94B94880911B140F90D4
:100CD0000F9083FD0DC000D08FE291E0ADB7BEB79D
:100CE00012969C938E9311970E94B9480F900F9083
:100CF00000D081E191E0EDB7FEB7928381830E943D
:100D0000B9480F900F900E945C1A00D000D0EDB748
:100D1000FEB7319624EF30E0ADB7BEB712963C93E4
:100D20002E931197828313823BC082E090E09093D0
:100D30004701809346011092E6141092E514109238
:100D4000A50D1092A40D5F985D9A8EB1806C8EB93E
:100D50008091E00081608093E00020E048EC50E06A
:100D600008C0FA013197F1F70197D9F72F5F2233C5
:100D700019F088EE93E0F5CF8091E0008E7F8093AC
:100D8000E00014C000D000D08DEC90E0EDB7FEB7CD
:100D900092838183822F992787FD90959483838303
:100DA0000E94B9480F900F900F900F90DF91CF9154
:100DB0001F910895CF93DF93EC018881998100976B
:100DC00029F0813A910509F062C058C00E94C535EA
:100DD0008091B50C882321F081508093B50C01C01F
:100DE000769A8091B80D882399F18091460190916F
:100DF0004701019769F58091A40D9091A50D892B6C
:100E000039F180913103882319F580910C018823F1
:100E100031F00E94CA350E947A0410920C01909120
:100E20002203943048F080912314882329F01092F3
:100E300022030E94443608C09F5F9093220304C09F
:100E40000E941F360E94F6040E94FD358823C1F7D8
:100E50008091460190914701019729F489E293E03E
:100E600061E070E004C089E293E06DE770E00E9409
:100E7000092781EA90E09983888307C089E293E09B
:100E80000E94A225892B09F0A3CF81E003C019821B
:100E9000188283E0DF91CF910895DF93CF9300D044
:100EA00000D0CDB7DEB7FC018091B80D882309F4DE
:100EB00059C09B012C5F3F4F81E08093E9008091F6
:100EC000E80085FFFCCF2093F100832F8F73809380
:100ED000F10012C081918093F100615070408091C7
:100EE000E80085FD09C08091E8008F778093E800D5
:100EF0008091E80085FFFCCF6115710559F78EEDF3
:100F000089838DEA8A838EEB8B838FEE8C8390911D
:100F1000B60CFE0131969E012B5F3F4F808180937E
:100F2000F1008091E80085FD09C08091E8008F778D
:100F30008093E8008091E80085FFFCCF442311F006
:100F400077989AE03196E217F30741F79093B60C41
:100F50008091E8008F778093E8008091E80085FF1A
:100F6000FCCF81E00F900F900F900F90CF91DF9109
:100F70000895CF93DF93EC0181E090E0A0E0B0E032
:100F80008093B80C9093B90CA093BA0CB093BB0C9F
:100F900084E290E0A0E0B0E08093C00C9093C10C9C
:100FA000A093C20CB093C30CCB01A0E0B0E080933F
:100FB000C40C9093C50CA093C60CB093C70C1092B0
:100FC000CC0C1092CD0C1092CE0C1092CF0C109233
:100FD000C80C1092C90C1092CA0C1092CB0C109233
:100FE000D00C1092D10C1092D20C1092D30C109203
:100FF000D40C1092D50C1092D60C1092D70C1092E3
:10100000D80C1092D90C1092DA0C1092DB0C1092C2
:10101000DC0C1092DD0C1092DE0C1092DF0C1092A2
:10102000E00C1092E10C1092E20C1092E30C8C9602
:10103000A11DB11D8093BC0C9093BD0CA093BE0C60
:10104000B093BF0C81E08093E9008091E8008F7736
:101050008093E8008091E80085FFFCCFE8EBFCE09E
:1010600081918093F1008CE0E43EF807C9F719C044
:1010700088818093F1008091E80085FD09C080910E
:10108000E8008F778093E8008091E80085FFFCCF2F
:10109000442319F077989093B60C219661507040D4
:1010A00001C09AE06115710519F78091E8008F770A
:1010B0008093E80081E0DF91CF910895209146016F
:1010C000309147012330310519F40E944D070895EE
:1010D0002230310510F080E008950E94B90708958C
:1010E0005D988AE08093B70C089577988AE08093A2
:1010F000B60C0895EF92FF921F93CF93DF937C017C
:10110000FC0180819181843F910509F465C0F2E082
:1011100084309F0709F4BEC1892B09F0C3C18091B7
:10112000B70C882321F081508093B70C01C05D9AE1
:101130008091B60C882321F081508093B60C01C0B9
:10114000779A8091A40D9091A50D029709F002C1A4
:1011500080913B01882351F08AE393E069E170E0DC
:101160000E9494250E94A43510923B015F9A82E070
:101170008093E9008091E80082FF72C18091CE0DDA
:101180009091CF0D892B09F06BC10E94FE15209123
:101190003A0330913B038217930720F0EC01C21B06
:1011A000D30B04C0C0913C03D0913D038AE393E08C
:1011B0000E947225892BE1F481E0809331036091D4
:1011C0003C0370913D036C1B7D0B82E393E00E9416
:1011D000092784EF90E05AC182E393E00E94A225A0
:1011E000892B09F464C182E08093E90010923103F5
:1011F0008AE393E00E9489259091F2009C3210F0DE
:1012000060E00BC08091E8008B7F8093E8008091C4
:10121000E8008F778093E80061E0E8EBFCE08091E4
:10122000F10081932CE0E43EF207C9F7192F1C521C
:101230008091B80C9091B90CA091BA0CB091BB0CF4
:101240000197A105B10559F08091E8008B7F80934B
:10125000E8008091E8008F778093E80061E02091BA
:10126000C40C3091C50C4091C60C5091C70C21158F
:1012700031054105510509F4F3C0662309F0F0C0BA
:101280005D988AE08093B70C6091C00C7091C10C9E
:10129000645270408091E8008F7E8093E80026C001
:1012A0008091F100115001F58091E8008B7F8093CF
:1012B000E8008091E8008F778093E8008091E80053
:1012C00082FD04C08091E80084FFF8CF8091E8009F
:1012D00084FF06C08091E8008F7E8093E80009C0FB
:1012E0001091F200112329F06150704061157105D1
:1012F000B9F6B901E6E1FEE01BC08091F100808300
:1013000021503040115099F42115310581F0809120
:10131000E8008B7F8093E8008091E8008F778093CE
:10132000E8008091E80082FFFCCF1091F200319636
:101330002115310511F78091E8008B7F8093E8003B
:101340008091E8008F778093E8006093CE0D7093D2
:10135000CF0D82C08091B80D882309F481C080919F
:10136000460190914701039709F07AC080913B01B3
:10137000882321F00E94A43510923B015F9A82E0FD
:101380008093E9008091E80082FF6AC08091CE0DD1
:101390009091CF0D892B09F063C09091F2009230AB
:1013A00068F04091F1004093B80C8091F100809377
:1013B000B90C692F6250882364F452C08091E80010
:1013C0008B7F8093E8008091E8008F778093E8001E
:1013D000E8CF90E08F739070382F2227842F90E011
:1013E000282B392B21153105D9F15D988AE080939E
:1013F000B70CA901E6E1FEE08091F1008193415034
:1014000050406150B1F441155105B1F08091E800B0
:101410008B7F8093E8008091E8008F778093E800CD
:101420008091E80082FFFCCF6091F200662321F7F3
:1014300003C04115510501F78091E8008B7F80932F
:10144000E8008091E8008F778093E80024503040D6
:101450003093CF0D2093CE0D86E19EE00E94E534BF
:1014600080914601909147018230910510F00397D9
:1014700029F482E393E061E070E004C082E393E04A
:101480006DE770E00E94092784E092E0F701918304
:1014900080830DC082E393E00E94A225892B09F08E
:1014A0003ECE05C0F7011182108283E001C081E0C9
:1014B000DF91CF911F91FF90EF90089581E080938D
:1014C0003E0308958091E800877F8093E800909123
:1014D0003F03392FE0E01DC08091E80080FFFCCF82
:1014E0002E2F5E2F505C0DC0432F4150251759F011
:1014F000E22FF0E0E850F34F80818093F1002F5FFE
:10150000342F332389F78091E8008E7F8093E800A1
:10151000E22F332339F08091E80082FFDDCF309352
:101520003F0302C010923F038091E80082FD13C088
:10153000892F90E08F739070892B49F48091E80097
:1015400080FFFCCF8091E8008E7F8093E80080913F
:10155000E80082FFFCCF8091E8008B7F8093E80059
:101560008091E8008F778093E80081E008959B01E7
:10157000AC018091E80080FF47C080913F03882341
:1015800009F042C087E090E0A0E0B0E08093F80C62
:101590009093F90CA093FA0CB093FB0C84E190E0CB
:1015A000A0E0B0E08093FC0C9093FD0CA093FE0CA7
:1015B000B093FF0C2093000D3093010D4093020D6A
:1015C0005093030DE8EFFCE081918093F1008DE0F2
:1015D000EC30F807C9F78091E8008E7F8093E8002F
:1015E0008091E80080FFFCCF8091E80082FFFCCF73
:1015F0008091E8008B7F8093E8008091E8008F77EE
:101600008093E80081E0089580E0089565FF02C0BE
:1016100086E001C086E1809378010E94F818089561
:10162000EF92FF920F931F93DF93CF93CDB7DEB767
:1016300069970FB6F894DEBF0FBECDBF00910C0DB9
:1016400010910D0D90E0E92E9DE0F92EE00EF11EB7
:10165000F70184819581A681B78183339105A10526
:10166000B10510F022E301C0282F30E0AE014F5F3A
:101670005F4F15C0E32FF0E0BA016E0F7F1FEE0F32
:10168000FF1FD7018D919C91E80FF91FE00FF11F0B
:10169000E050F34F8081FB01808322503F5F1216A0
:1016A0004CF38091040D9091050DA091060DB09121
:1016B000070D8B31F2E09F07F1E0AF07F0E0BF07C5
:1016C00009F43AC08C3122E0920721E0A20720E021
:1016D000B207C8F48F30E1E09E07E1E0AE07E0E03A
:1016E000BE0709F499C08231F1E09F07F1E0AF072E
:1016F000F0E0BF0709F490C08E509140A140B04087
:1017000009F063C038C08130E1E09E07E1E0AE0738
:10171000EDE0BE0709F44FC08230F1E09F07F1E031
:10172000AF07FDE0BF0709F477C083509140A140A7
:10173000B14009F04AC070C0CE01019663E476E082
:1017400047E050E00E946548892B09F065C0D70149
:101750001C96ED91FC911D97E050F34FE00FF11FA7
:10176000808120911B14803311F4277F01C02860F1
:1017700020931B1451C00050134FF80160817181F8
:10178000828193816093400370934103809342036D
:1017900090934303611571058105910529F00E941D
:1017A000060B82E090E002C081E090E09093A50DEE
:1017B0008093A40D31C00050134FD8018D919C919E
:1017C000909345018093440127C085E090E0A0E01C
:1017D000B0E88093F80C9093F90CA093FA0CB093B6
:1017E000FB0C20E130E040E050E02093FC0C309313
:1017F000FD0C4093FE0C5093FF0C81E090E0A0E0C4
:10180000B0EC8093040D9093050DA093060DB0935A
:10181000070D20933F0322C085E090E0A0E0B0E8F0
:101820008093F80C9093F90CA093FA0CB093FB0CF6
:1018300080E190E0A0E0B0E08093FC0C9093FD0C80
:10184000A093FE0CB093FF0C1092040D1092050DA6
:101850001092060D1092070D80933F0369960FB604
:10186000F894DEBF0FBECDBFCF91DF911F910F91D6
:10187000FF90EF900895E8EFFCE084E090E0A0E0B6
:10188000B0E88093F80C9093F90CA093FA0CB09305
:10189000FB0C84E090E0A0E0B0E08093080D909312
:1018A000090DA0930A0DB0930B0D80E190E0A0E02C
:1018B000B0E080930C0D90930D0DA0930E0DB0939E
:1018C0000F0D8091040D9091050DA091060DB09122
:1018D000070D853021E0920722E0A20720E0B20741
:1018E00009F4DCC2863021E0920722E0A20720E062
:1018F000B20708F0BFC08D3021E0920721E0A207B7
:1019000020E0B20709F4C8C18E3021E0920721E03F
:10191000A20720E0B20708F049C0863021E0920714
:1019200021E0A20720E0B20709F4A2C1873021E03C
:10193000920721E0A20720E0B207F8F4823021E00C
:10194000920721E0A20720E0B20709F4A7C2833082
:1019500021E0920721E0A20720E0B20738F481508D
:101960009140A140B04009F0A2C269C185509140A8
:10197000A140B04008F09BC291C28C3021E0920798
:1019800021E0A20720E0B20708F081C18A3021E0FF
:10199000920721E0A20720E0B20708F073C1875048
:1019A0009140A140B04009F082C267C1863121E078
:1019B000920721E0A20720E0B20709F48EC1873127
:1019C00021E0920721E0A20720E0B20710F58F3056
:1019D00021E0920721E0A20720E0B20709F482C1CA
:1019E0008F3021E0920721E0A20720E0B20708F43F
:1019F00066C1813121E0920721E0A20720E0B20711
:101A000009F466C184519140A140B04009F04FC231
:101A100045C2823021E0920722E0A20720E0B2070F
:101A200009F4FDC1833021E0920722E0A20720E003
:101A3000B20780F4823022E0920721E0A20720E082
:101A4000B20709F42BC281509140A240B04009F086
:101A50002EC2DCC1833021E0920722E0A20720E001
:101A6000B20709F4EEC184509140A240B04009F0A1
:101A70001EC2DEC1883021E0920721E0A2072DE0DE
:101A8000B20709F4F0C0893021E0920721E0A207F3
:101A90002DE0B20708F06AC0853021E0920721E00E
:101AA000A20721E0B20709F4F9C1863021E09207CC
:101AB00021E0A20721E0B20740F5823021E0920741
:101AC00021E0A20721E0B20709F438C1833021E008
:101AD000920721E0A20721E0B20738F4815091403B
:101AE000A140B14009F0E3C1FDC0833021E092077D
:101AF00021E0A20721E0B20709F441C184509140DE
:101B0000A140B14009F0D3C13FC1833021E0920729
:101B100022E0A20721E0B20709F4C0C1843021E02D
:101B2000920722E0A20721E0B20780F4813021E091
:101B3000920722E0A20721E0B20709F4AFC1825068
:101B40009140A240B14009F0B2C1A8C1813021E06A
:101B5000920721E0A2072DE0B20709F41AC18250D2
:101B60009140A140BD4009F0A2C136C18E3022E0B3
:101B7000920721E0A2072DE0B20709F474C08F306C
:101B800022E0920721E0A2072DE0B20740F58B3159
:101B900021E0920721E0A2072DE0B20709F463C01B
:101BA0008C3121E0920721E0A2072DE0B20738F442
:101BB00088519140A140BD4009F079C154C08430A2
:101BC00022E0920721E0A2072DE0B20709F466C1E6
:101BD00086509240A140BD4009F069C112C18030D9
:101BE00021E0920721E0A2072DEFB20709F43AC1E4
:101BF000813021E0920721E0A2072DEFB20778F4AF
:101C0000813122E0920721E0A2072DE0B20759F1CD
:101C100087519240A140BD4009F049C124C08230A3
:101C200021E0920721E0A2072DEFB20709F42DC1B0
:101C300086509140A140BD4F09F039C12FC18CE8B9
:101C400090E0A0E0B0E08093080D9093090DA09380
:101C50000A0DB0930B0DCF01489667EB75E04CE889
:101C600050E00E945C4880E090E0A0E0B0E02BC132
:101C700080E095E0A0E0B0E0ECC084E690E0A0E079
:101C8000B0E0E7C086E690E0A0E0B0E0E2C08FEF11
:101C90009FEFAFEFB0E0DDC088E090E0A0E0B0E003
:101CA0008093080D9093090DA0930A0DB0930B0D2E
:101CB000CF01489669E576E048E050E0D2CF8091C8
:101CC000400390914103A0914203B0914303C1C0EE
:101CD00084E195E0A0E0B0E0BCC080E090E1A0E04D
:101CE000B0E0B7C01092140D1092150D1092160DA1
:101CF0001092170D809141018093100D8091400149
:101D00008093110D80913F018093120D80913E01CF
:101D10008093130D80913D018093140D80913C01BF
:101D20008093150D8091080D9091090DA0910A0DD9
:101D3000B0910B0D0296A11DB11D45C01092140D5E
:101D40001092150D1092160D1092170D80914101F1
:101D50008093100D809140018093110D80913F017F
:101D60008093120D80913E018093130D80913D016F
:101D70008093140D80913C018093150D20C080E06C
:101D800090E0A0E0BEE065C081E090E0A0E0B0E0BF
:101D900060C08091440190914501A0E0B0E0809343
:101DA000100D9093110DA093120DB093130D10927E
:101DB000140D1092150D1092160D1092170D86E04D
:101DC00090E0A0E0B0E08093080D9093090DA093FF
:101DD0000A0DB0930B0D47CF8DE090E0A0E0B0E08E
:101DE0008093100D9093110DA093120DB093130DCD
:101DF00084E19DE06BE476E04DE050E00E947348A2
:101E000032CF8CEE9FEFAFEFBFEF23C08091A60DD6
:101E10009091A70DA091A80DB091A90D1AC0809125
:101E2000AA0D9091AB0DA091AC0DB091AD0D11C06C
:101E30008091B20D9091B30DA091B40DB091B50DFC
:101E400008C08091AE0D9091AF0DA091B00DB091F2
:101E5000B10D8093100D9093110DA093120DB093BE
:101E6000130D01CF86E090E0A0E0B0E08093080D74
:101E70009093090DA0930A0DB0930B0D789686E010
:101E8000DF011D928A95E9F7EECE1092080D1092AF
:101E9000090D10920A0D10920B0DE5CE1092100D47
:101EA0001092110D1092120D1092130DDCCE1092A3
:101EB000080D1092090D10920A0D10920B0D81E081
:101EC00090E0A0E0B0EC8093040D9093050DA093FA
:101ED000060DB093070D8091080D9091090DA0910A
:101EE0000A0DB0910B0D4896A11DB11D8093FC0CFD
:101EF0009093FD0CA093FE0CB093FF0C4897A109A2
:101F0000B10941F410920C0D10920D0D10920E0DAE
:101F100010920F0D8091FC0C80933F030895209147
:101F2000E800277F2093E8009C018D3A910510F08E
:101F30002CEA30E08091E8008F7B8093E800E0E0BD
:101F400030C08091E8009091E80082FD02C096FFC9
:101F5000F8CF8091E80082FF1EC09E2F4E2F405C7C
:101F60008091F100E92FF0E0E850F34F80839F5F0C
:101F700021503040941719F02115310589F78091CF
:101F8000E8008B7F8093E8008091E8008F77809352
:101F9000E800E92F06C08091E8008F7B8093E8007D
:101FA00003C02115310569F68091E8008E7F80938A
:101FB000E8008091F80C9091F90CA091FA0CB09186
:101FC000FB0C84309105A105B10509F4A7C085304B
:101FD0009105A105B10558F482309105A105B1051F
:101FE000C1F00397A105B10509F0F4C08DC086309A
:101FF0009105A105B10509F497C086309105A105A9
:10200000B10508F48EC00897A105B10509F0E2C03A
:10201000BEC082E090E0A0E0B0E88093F80C90931E
:10202000F90CA093FA0CB093FB0C24E330E040E0F1
:1020300050E02093FC0C3093FD0C4093FE0C509329
:10204000FF0C81E090E0A0E0B0E08093080D909359
:10205000090DA0930A0DB0930B0D80930C0D909376
:102060000D0DA0930E0DB0930F0D1092040D109254
:10207000050D1092060D1092070D8093100D909390
:10208000110DA093120DB093130D1092140D109218
:10209000150D1092160D1092170D8093180D909338
:1020A000190DA0931A0DB0931B0D8AE395E0A0E0E3
:1020B000B0E080931C0D90931D0DA0931E0DB09366
:1020C0001F0D83E090E0A0E0B0E08093200D90939E
:1020D000210DA093220DB093230D1092240D109288
:1020E000250D1092260D1092270D1092280D10929A
:1020F000290D10922A0D10922B0D81E090E0909303
:10210000A50D8093A40D40C05F9A5D98779876984E
:102110008091E8008E7F8093E800FFCF0E943B0C07
:102120005CC00E94100B59C01092A50D1092A40D16
:1021300086E090E0A0E0B0E88093F80C9093F90C72
:10214000A093FA0CB093FB0C20E130E040E050E0AB
:102150002093FC0C3093FD0C4093FE0C5093FF0C2D
:102160001092000D1092010D1092020D1092030DAD
:1021700081E090E0A0E0B0E08093040D9093050D25
:10218000A093060DB093070D20933F0326C088E06F
:1021900090E0A0E0B0E88093F80C9093F90CA09345
:1021A000FA0CB093FB0C80E190E0A0E0B0E08093EB
:1021B000FC0C9093FD0CA093FE0CB093FF0C1092BE
:1021C000040D1092050D1092060D1092070D8093CC
:1021D0003F0303C0779880E008958091E80080FF76
:1021E000FCCF8091E80082FF0AC08091E8008B7FDD
:1021F0008093E8008091E8008F778093E80081E089
:1022000080933E0308950F931F939091F100909354
:102210004C036091F1006630F9F0673068F461308A
:1022200009F405C1613008F471C1633009F439C1A2
:10223000653009F0C0C1BFC0693009F4DEC06A3042
:1022400020F4683009F0B7C199C06A3009F49BC125
:102250006B3009F0B0C19EC1903809F08CC010926B
:1022600044036091F1008091F1009091F100909110
:10227000F1001091F1000091F100813019F08230ED
:1022800099F407C00E947D368093B90D0E9465368F
:1022900006C00E9497368093B90D0E947F369093B6
:1022A000BB0D8093BA0D05C00E940937882309F43D
:1022B00087C18091E800877F8093E8008091B90D05
:1022C000811710F0002361F090E08F739070892BDC
:1022D00021F481E08093440305C01092440302C0BE
:1022E0001093B90D2091BA0D3091BB0D4091B90DED
:1022F00019C08091E80080FFFCCFF90190E00AC08E
:10230000542F5150903449F09F5F84918093F10095
:102310003196452F9F01442399F78091E8008E7FE5
:102320008093E800442359F08091E80082FFE1CFD8
:102330002093BA0D3093BB0D4093B90D06C0209386
:10234000BA0D3093BB0D1092B90D8091E80082FD5B
:102350000EC180914403813049F48091E80080FFF0
:10236000FCCF8091E8008E7F8093E8008091E800A8
:1023700082FFFCCFFCC0892F66E009C19038C1F410
:102380008091E800877F8093E8008091B80D80936A
:10239000F1008091E8008E7F8093E8008091E80052
:1023A0008F778093E8008091E80082FFFCCFDFC048
:1023B000892F68E0ECC09923E9F49091E3008091C3
:1023C000F1008F779078892B8093E3008091E8006B
:1023D000877F8093E8008091E8008E7F8093E800FB
:1023E0008091E80080FFFCCF8091E30080688093BB
:1023F000E300F0C0892F65E0CAC09923A9F4909149
:10240000F100923008F0DCC08091E800877F809373
:10241000E8009093B80D8091E8008E7F8093E800EB
:10242000892F0E94B437D6C0892F69E0B0C093309D
:10243000A8F5992309F4C4C0913009F4C1C0809172
:10244000F1009091F100882309F0BAC0E091F10009
:10245000EF77E093E9008091EB0080FF51C0EE231D
:10246000B1F08091EB0080618093EB0081E090E01F
:102470000E2E02C0880F991F0A94E2F78093EA009B
:102480001092EA008091EB0088608093EB0010923C
:10249000E900F0E0EB5BFC4F108229C0892F61E07E
:1024A00076C0933080F5913009F48AC0923009F0FB
:1024B00091C08091F1009091F100882309F080C0D3
:1024C000E091F100EF7709F47BC0E093E90080919F
:1024D000EB0080FF15C08091EB0080628093EB00E1
:1024E0001092E900F0E0EB5BFC4F81E0808380918B
:1024F000E800877F8093E8008091E8008E7F68C0C5
:102500001092E9005DC0892F63E041C0892F805897
:102510008330B0F58091F1008091F100E091F100FD
:10252000913829F0923859F0903809F049C08091DB
:10253000E800877F8093E8001092F1000DC0809141
:10254000E800877F8093E800F0E0EF77F070EB5BC6
:10255000FC4F80818093F1001092F1008091E8009F
:102560008E7F8093E8008091E80082FFFCCF80910D
:10257000E8008B7F8093E8008091E8008F7728C087
:10258000892F60E004C09138D9F0892F6AE00E9459
:102590004D3820C09130F1F48091E800877F80931E
:1025A000E8008091E8008E7F8093E8008091E80049
:1025B00080FFFCCF0FC0892F0E944D38882351F433
:1025C0008091EB0080628093EB008091E800877F30
:1025D0008093E8001F910F910895789483B7817FCD
:1025E000846083BF83B7816083BF889583B78E7F04
:1025F00083BF08958EE089BD09B400FEFDCF8091B0
:10260000D8008F7D8093D8008091D800816080931E
:10261000D8008091E20088608093E2000E94F13649
:102620008091E0008E7F8093E00008951F93CF9308
:10263000DF93EC01162F623899F5809131038823DE
:1026400059F51092E9008091E80083FF02C00E94D2
:10265000031180913E038823F9F083E08093E90021
:102660008091E80085FF18C081E08093F10010920E
:10267000F1001092F1001092F1001092F10010920E
:10268000F1001092F1001092F1008091E8008F7734
:102690008093E80010923E0384E591E00E942D258E
:1026A00088819981009729F08551914009F056C0A1
:1026B00051C08091D70081608093D7008091D7006E
:1026C0008F7B8093D7008091D70080688093D7005C
:1026D00078948091D8008F768093D8008091D8002C
:1026E00080698093D8008091D8008F7B8093D80038
:1026F0008091D80081608093D800789484E591E03F
:102700000E942D258091D90080FF09C08091BC0DC9
:10271000882329F481E08093BC0D0E94FA128091F5
:102720004D0390914E0390FF10C080914D03909106
:102730004E039E7F90934E0380934D0381E08093E0
:10274000EA001092EA001092B80D85E191E09983B9
:10275000888302C01F32B1F281E003C0198218825F
:1027600083E0DF91CF911F9108951F920F920FB6D2
:102770000F920BB60F9211242F933F934F935F93B9
:102780006F937F938F939F93AF93BF93EF93FF9339
:1027900084E591E06FE240E050E00E94CD2480911A
:1027A000DA0080FF31C08091D80080FF2DC08EEF0D
:1027B0008093DA008091D90080FF19C081E0809376
:1027C000BC0D80914D0390914E03826090934E0317
:1027D00080934D038091E20088608093E2000E9424
:1027E000FA128091E0008E7F8093E0000DC010927D
:1027F000BC0D1092B80D80914D0390914E038460F2
:1028000090934E0380934D038091E10082FF07C0B7
:102810008091E20082FF03C08BEF8093E100809102
:10282000E10080FF1FC08091E20080FF1BC08EEF9F
:102830008093E1008091E20080618093E2008FEE5E
:102840008093E1008091D80080628093D8008091CD
:102850004D0390914E03806290934E0380934D03FD
:102860000E94ED128091E10084FF1AC08091E20085
:1028700084FF16C08091D8008F7D8093D8008FEEA2
:102880008093E1008091E2008F7E8093E20080914E
:102890004D0390914E03806490934E0380934D03BB
:1028A0008091E10085FF1AC08091E20085FF16C08B
:1028B0008091E2008F7E8093E2008FED8093E100B3
:1028C0008091E2008F7D8093E20080914D03909192
:1028D0004E03806890934E0380934D038091E100F6
:1028E00083FF12C08091E20083FF0EC087EF8093C8
:1028F000E1000E94F13680914D0390914E0391606A
:1029000090934E0380934D03FF91EF91BF91AF9150
:102910009F918F917F916F915F914F913F912F91F7
:102920000F900BBE0F900FBE0F901F9018951F9326
:1029300081E08093E90011E00AC01092E9008091E3
:10294000E80083FF02C00E9403111093E900809108
:10295000EB0085FDF2CF82E08093E90012E00AC02F
:102960001092E9008091E80083FF02C00E940311E9
:102970001093E9008091EB0085FDF2CF81E0809318
:10298000E9008091E80085FFFCCF85E58093F100A8
:1029900093E59093F10082E48093F1009093F1002D
:1029A000809150038093F100809151038093F10056
:1029B000809152038093F100809153038093F10042
:1029C000809129148093F100809128148093F10064
:1029D000809127148093F100809126148093F10058
:1029E00080913A148093F1008091E8008F77809372
:1029F000E8001F91089582E08093E9002091F100A2
:102A00008091F100833519F490E0253509F091E0CB
:102A10008091F100823409F091E08091F1008334DB
:102A200009F091E08091F100809350038091F100D2
:102A3000809351038091F100809352038091F100C3
:102A4000809353038091F100809326148091F100CC
:102A5000809327148091F100809328148091F100D5
:102A6000809329148091F1008823B9F021E020930C
:102A70004F03992331F18091E8008B7F8093E80028
:102A80008091E8008F778093E8002093E90080919F
:102A9000EB0080628093EB00089510924F0399231E
:102AA00081F08091EB0080628093EB008091E800E0
:102AB0008B7F8093E8008091E8008F778093E80017
:102AC00008958091F1008093BD0D80912514882395
:102AD00021F40E94E63C8093BD0D8091F100EAE272
:102AE000F4E18091F100819384E1EA33F807C9F7BA
:102AF0008091E8008B7F8093E8008091E8008F77D9
:102B00008093E80080914F03813011F48093E900B5
:102B10000E94943C813089F0809126149091271472
:102B2000A0912814B09129140097A105B10529F0AE
:102B30008091EB0080628093EB000895CF93DF9348
:102B4000EC0188819981009721F086389105A1F5E3
:102B50002BC08091460190914701029779F48091B2
:102B6000B80D882359F082E08093E9008091E80055
:102B700082FF04C00E94FB140E94971480914601BA
:102B800090914701029729F484E593E061E070E0B9
:102B900004C084E593E06DE770E00E94092786E8B1
:102BA00090E09983888306C084E593E00E94A22583
:102BB000892B79F681E003C01982188283E0DF91C6
:102BC000CF910895F8941092B60016BC8EE387BD9D
:102BD00092E094BD85E085BD85B385BB90936E0082
:102BE00010925D0310925C0380915C0390915D03F1
:102BF00090935F0380935E037894089520915C0323
:102C000030915D0380915C0390915D032817390733
:102C1000A9F7C901089507C022E330E00000215060
:102C20003040E1F701970097B9F70895BC01409152
:102C30005C0350915D0380915C0390915D034817A4
:102C40005907A9F720915C0330915D0380915C03E3
:102C500090915D0328173907A9F7241B350B261718
:102C6000370780F3089508952091BE0D3091BF0D70
:102C70004091C00D5091C10D8091BE0D9091BF0D3E
:102C8000A091C00DB091C10D281739074A075B0705
:102C900059F7B901CA0108951F920F920FB60F920A
:102CA0000BB60F9211242F933F934F935F936F9323
:102CB0007F938F939F93AF93BF93EF93FF938091F5
:102CC0005C0390915D03019690935D0380935C0398
:102CD00080915E0390915F03019690935F038093D0
:102CE0005E0380915E0390915F038D379105B9F487
:102CF00010925F0310925E038091BE0D9091BF0D04
:102D0000A091C00DB091C10D0196A11DB11D809380
:102D1000BE0D9093BF0DA093C00DB093C10D0E9446
:102D2000BA25892B11F00E943926FF91EF91BF91AE
:102D3000AF919F918F917F916F915F914F913F9153
:102D40002F910F900BBE0F900FBE0F901F901895F4
:102D500089E693E008958091680308958091660361
:102D6000089580E01C9981E008952D982C988CE0BE
:102D700090E00197F1F72D9A0895DF92EF92FF927C
:102D80000F931F93DF93CF9300D00F92CDB7DEB791
:102D90000091660080E880936600109270001092A7
:102DA0006F008091B60080628093B6008091B6007B
:102DB0008B71E1F781E08093B1008FB78983F8943C
:102DC00010E8DD24D39480E8E82EFF24FA94D09212
:102DD00081008091B6008B71E1F7E092B200109211
:102DE000850010928400F7BAB89BFECF80918400D2
:102DF000909185009B838A83109281006A817B81F8
:102E000080E090E00E94074520E03FEE47EE56E468
:102E10000E94D744882324F4809166008F5F13C0FA
:102E20006A817B8180E090E00E94074520E83CE2D7
:102E300040E057E40E94A744181614F081E006C051
:102E40008091660081508093660080E0115021F0EF
:102E5000882309F4BCCF04C0882311F400936600D2
:102E60001092B1008091B6008F7D8093B600898169
:102E70008FBF0F900F900F90CF91DF911F910F9107
:102E8000FF90EF90DF900895282F8EE268E043E0F6
:102E90000E94DC1C0895882329F085E060E847E063
:102EA00021E004C085E060E847E020E00E94DC1CEF
:102EB00008952C988CE090E00197F1F782E06FE1A3
:102EC00040E023E00E94DC1C82E090E00197F1F7F3
:102ED00008951F93162F603118F022E430E01AC0D5
:102EE0001C9B03C024E430E015C0882329F081E155
:102EF00060E144E021E004C081E160E144E020E0E1
:102F00000E94DC1C81E16FE040E0212F0E94DC1C6C
:102F100020E430E0C9011F9108951F93282F162F38
:102F20008330A8F4603198F41C9B03C024E430E0A3
:102F300010C088E060E645E00E94DC1C89E06FE09C
:102F400040E0212F0E94DC1C20E430E002C022E49B
:102F500030E0C9011F910895282F803118F022E434
:102F600030E00CC01C9B03C024E430E007C085E0C7
:102F70006FE040E00E94DC1C20E430E0C9010895CD
:102F80000F931F93082F162F1C9B03C024E430E0DF
:102F90002BC08CE260EF44E020E00E94DC1C212F7B
:102FA00030E02873307093E0359527959A95E1F7D6
:102FB0008CE26EE041E00E94DC1C212F22952695D8
:102FC000269523708EE260EC46E00E94DC1C8DE2C8
:102FD000602F0E94AE1C17708EE267E040E0212F48
:102FE0000E94DC1C20E430E0C9011F910F9108957C
:102FF000AF92BF92CF92DF92EF92FF920F931F9307
:103000008C017C010894E11CF11C84E2F8016081D0
:103010000E94AE1C67010894C11CD11C85E2F80116
:1030200061810E94AE1C56010894A11CB11C86E26D
:10303000F70161810E94AE1C75010894E11CF11C2E
:1030400087E2F60161810E94AE1C87010F5F1F4F6E
:1030500088E2F50161810E94AE1C89E2F70161817D
:103060000E94AE1C8AE2F80161810E94AE1C8BE2D4
:103070000F5F1F4FF80161810E94AE1C1F910F91DD
:10308000FF90EF90DF90CF90BF90AF9008951F9387
:10309000682F192F80E20E94AE1C81E2612F0E94EE
:1030A000AE1C1F9108951F93682F192F82E20E9472
:1030B000AE1C83E2612F0E94AE1C1F910895EF9217
:1030C000FF920F931F937C0184E20E94931CF701EF
:1030D00081938F0185E20E94931CF701818378011F
:1030E0000894E11CF11C86E20E94931CF801818384
:1030F00087010F5F1F4F87E20E94931CF7018183B6
:1031000078010894E11CF11C88E20E94931CF801EC
:10311000818387010F5F1F4F89E20E94931CF70193
:1031200081838AE20E94931CF80181838BE20E94D2
:10313000931C0F5F1F4FF80181831F910F91FF9028
:10314000EF9008951F9381E20E94931C182F81E253
:103150000E94931C512F40E0282F30E0242B352B68
:10316000C9011F9108951F9383E20E94931C182F99
:1031700082E20E94931C512F40E0282F30E0242B44
:10318000352BC9011F9108958EE268E043E00E944B
:10319000C91C089581E06FE140E00E94C91C0895B8
:1031A0001C9904C020E430E0C90108952C9880EEF9
:1031B00096E00197F1F781E06FE140E00E94C91CC1
:1031C000883081F323E430E0EFCF1C990DC00E94DA
:1031D000591781E06FE140E00E94C91C883019F066
:1031E00023E430E003C02C9A20E430E0C9010895C4
:1031F0000F931F93082F883059F0863049F089309B
:1032000039F0863129F0893119F022E430E056C0D6
:103210001C9B03C024E430E051C081E06FE140E03A
:103220000E94C91C182F81518230B8F31130A9F3C4
:10323000123099F3011709F43FC0083019F40E94C5
:10324000591726C0093139F4163199F482E06FE13B
:1032500040E029E008C0063161F4193151F482E000
:103260006FE140E026E00E94DC1C82E090E00197E4
:10327000F1F782E06FE140E0202F0E94DC1C183063
:1032800019F488E691E002C082E090E00197F1F73E
:1032900081E06FE140E00E94C91C801719F023E42F
:1032A00030E00CC0063011F0063121F481E080934B
:1032B000670302C01092670320E430E0C9011F9148
:1032C0000F91089581E06FE140E00E94C91C885091
:1032D000823018F024E430E016C088E160E847E06E
:1032E00021E00E94DC1C82E390E00197F1F788E185
:1032F00060E847E00E94C91C882319F420E430E00C
:1033000002C023E430E0C901089583E067E040E0B3
:103310000E94C91C08950F931F93082F162F663023
:1033200018F022E430E01CC083E067E040E00E9437
:10333000C91C811799F0002329F483E068E043E079
:1033400021E004C083E068E043E020E00E94DC1C50
:1033500083E067E040E0212F0E94DC1C20E430E0A5
:10336000C9011F910F910895DF92EF92FF920F9381
:103370001F93D0906600F89481E061E00E948B1961
:10338000E090B100F0908100009180001092B100B7
:10339000109281001092800020E030E04FEF63E057
:1033A00056E046BB47BB1092B200109285001092C7
:1033B00084006093B10050938100B89BFECF1092BF
:1033C00081001092B100809184009091850073E09B
:1033D0008A3F970720F480916600815008C086508C
:1033E000944010F411E00CC0809166008F5F8093D0
:1033F00066002F5F3F4F83E0283E380791F610E0CC
:1034000081E060E00E948B19E092B100F0928100AF
:1034100000938000112311F4D0926600812F1F9138
:103420000F91FF90EF90DF90089581E160E245E019
:103430000E94C91C882319F02BE430E002C02AE462
:1034400030E0C901089581E160E144E00E94C91CB7
:10345000089581E16FE040E00E94C91C0895CF9378
:10346000DF93EC0181E06FE140E00E94C91C8630EF
:1034700029F0813019F024E430E008C086E06FE1E3
:1034800040E00E94C91C888320E430E0C901DF913C
:10349000CF91089589E06FE040E00E94C91C089533
:1034A00088E060E645E00E94C91C089585E06FE071
:1034B00040E00E94C91C089588E06FE140E00E944E
:1034C000C91C08951F93182F8B50803118F022E4E7
:1034D00030E02BC01C9B03C024E430E026C088E011
:1034E0006FE140E00E94C91C8117E9F088E06FE1BC
:1034F00040E0212F0E94DC1C81E06FE140E00E944F
:10350000C91C863011F0893021F48CE291E00197DA
:10351000F1F788E06FE140E00E94C91C811719F0C3
:1035200023E430E002C020E430E0C9011F91089597
:10353000DF92EF92FF920F931F937B018C01D42EA9
:1035400086E06FE140E00E94C91C80936603E09131
:103550006003F0916103309721F0C801B7014D2D50
:1035600009951F910F91FF90EF90DF9008951F93A1
:10357000CF93DF93182FEB0187FF03C022E430E0E5
:103580001FC081E06FE140E00E94C91C8230B1F0B1
:1035900081E06FE140E00E94C91C823179F088E04F
:1035A0000E94F81889E10E94F8182C9A2C98CE01F4
:1035B000612F0E94A11D20E430E002C024E430E02D
:1035C000C901DF91CF911F91089581E06FE140E043
:1035D0000E94C91C893019F024E430E029C08BE135
:1035E00060E847E021E00E94DC1C8AE160E847E0F7
:1035F00021E00E94DC1C0E94831C8CE291E0019778
:10360000F1F70E94801C882389F08BE160E847E095
:103610000E94C91C882351F48AE160E847E00E94B7
:10362000C91C882319F420E430E002C023E430E010
:10363000C9010895CF92DF92EF92FF920F931F93EB
:10364000CF93DF938B017A016901ECEFF3E03197BF
:10365000F1F7882311F00E94BD160E94FC1B0E9406
:10366000B51682E06FE140E023E00E94DC1C8CEFA5
:1036700093E00197F1F781E06FE140E00E94C91CFF
:10368000883019F0C3E4D0E014C08DE10E94931C8F
:103690008150823060F48EE10E94931C8F3139F4A6
:1036A0008EE06CE00E94AE1CC0E4D0E002C0C1E439
:1036B000D0E01093610300936003F0926303E09203
:1036C000620388E99AE10E945C1C87E79BE10E9403
:1036D000331CD0926503C0926403CE01DF91CF9179
:1036E0001F910F91FF90EF90DF90CF900895DF939F
:1036F000CF9300D000D00F92CDB7DEB79B01AC01C5
:10370000E0916203F0916303309711F0099552C084
:10371000809167038823C1F02093FD033093FE035B
:103720004093FF0350930004809166038093FC0351
:1037300088E693E060E070E00E94FB1C88E693E07E
:103740006AEE73E00E94B71E80916703882391F5AB
:1037500088E00E94F818809178010E94F8181B8276
:103760001A821D821C8282E060EE45E00E94C91C24
:1037700089838981833059F0843018F4823058F479
:1037800003C0853041F403C081E190E002C082E1D2
:1037900090E09B838A838A819B81892B21F0CE01D3
:1037A00002960E94D4204C815D818EE991E06A816D
:1037B0000E94CD240F900F900F900F900F90CF91FB
:1037C000DF910895DF93CF930F92CDB7DEB78FB718
:1037D0008983F8941092040410920504109207044F
:1037E00010920604109209041092080489818FBF78
:1037F0000F90CF91DF91089510920304109202046C
:103800000E94E21B249A259A84B1876084B985B10D
:10381000836085B980E58CBD81E08DBD83E48093B4
:103820008100B59AEFE6F0E080818160808380813D
:10383000806280830895809104040895DF93CF937C
:103840000F92CDB7DEB78FB78983F8941092040436
:1038500089818FBF0F90CF91DF91089580910804E7
:10386000909109040895DF93CF930F92CDB7DEB7FF
:103870002FB72983F89490930904809308048981D1
:103880008FBF0F90CF91DF910895DF93CF930F9269
:10389000CDB7DEB78FB78983F894109209041092E0
:1038A000080489818FBF0F90CF91DF910895809197
:1038B0000604909107040895DF93CF930F92CDB73C
:1038C000DEB72FB72983F8949093070480930604FA
:1038D00089818FBF0F90CF91DF910895DF93CF93B0
:1038E0000F92CDB7DEB78FB78983F8941092070493
:1038F0001092060489818FBF0F90CF91DF910895B8
:10390000809105040895DF93CF930F92CDB7DEB772
:103910008FB78983F8941092050489818FBF0F9027
:10392000CF91DF910895DF93CF930F92CDB7DEB79C
:1039300080689FB79983F89428988EBD0DB407FED0
:10394000FDCF8EB58EBD0DB407FEFDCF8EB5289A86
:1039500099819FBF0F90CF91DF910895DF93CF930F
:103960000F92CDB7DEB7806C9FB79983F8942898F3
:103970008EBD0DB407FEFDCF8EB56EBD0DB407FE36
:10398000FDCF8EB5289A89818FBF0F90CF91DF919F
:103990000895FF920F931F93062FF42E0E94931CFD
:1039A000082310E002C015950795FA94E2F7802FDE
:1039B0001F910F91FF900895DF92EF92FF920F9366
:1039C0001F93D82EF62EE42E022F0E94931C6F2DEB
:1039D0006095682310E002C0000F111FEA94E2F71F
:1039E000F0226F298D2D0E94AE1C1F910F91FF9028
:1039F000EF90DF9008958F929F92AF92BF92CF92F7
:103A0000DF92EF92FF920F931F93DF93CF930F926A
:103A1000CDB7DEB78C014B01009721F4611571051C
:103A200009F481C08FB78983F894289880E28EBD0D
:103A30000DB407FEFDCF8EB58EBD0DB407FEFDCFD4
:103A4000EEB48E2D83508D3708F060C0011511053E
:103A500039F068010894C11CD11CF801E08206C04D
:103A60008E2D90E0F4010995CC24DD24EEBC0DB43C
:103A700007FEFDCFAA24BB24FEB41EBC0115110510
:103A800021F0F601F1926F0104C08F2D90E0F40156
:103A90000995C5018F25082E8295807F8025092EE6
:103AA000982F82958F700826869598278927880FEA
:103AB000880F880F80255C010DB407FEFDCFEA94C6
:103AC000D9F60115110541F08EB500581F4FF801C8
:103AD00080830058104004C08EB590E0F401099531
:103AE000289A0115110549F0F801EF57FF4F108290
:103AF000AB28B9F481E0808314C080E090E0AB286B
:103B000011F081E090E0F40109950BC0289A0115AD
:103B1000110539F0F801108200581F4FF801119279
:103B2000108289818FBF0F90CF91DF911F910F91EC
:103B3000FF90EF90DF90CF90BF90AF909F908F90CD
:103B40000895DF93CF930F92CDB7DEB7FC016F7767
:103B50008FB78983F894289880E68EBD0DB407FE50
:103B6000FDCF8EB56EBD0DB407FEFDCF8EB5819134
:103B70008EBD61500DB407FEFDCF8EB56623B9F73B
:103B8000289A89818FBF0F90CF91DF910895DF939D
:103B9000CF930F92CDB7DEB7982FFA018FB78983F5
:103BA000F89428981EBC0DB407FEFDCF8EB59EBDBF
:103BB0000DB407FEFDCF8EB51EBC0DB407FEFDCFC4
:103BC0008EB58083615011F03196F6CF289A8981A5
:103BD0008FBF0F90CF91DF910895DF93CF930F9216
:103BE000CDB7DEB7982FFA018FB78983F89428985C
:103BF00080E48EBD0DB407FEFDCF8EB59EBD0DB425
:103C000007FEFDCF8EB581918EBD0DB407FEFDCFB1
:103C10008EB56150C1F7289A89818FBF0F90CF91DF
:103C2000DF9108951F920F920FB60F920BB60F926D
:103C300011240F931F932F933F934F935F936F9391
:103C40007F938F939F93AF93BF93EF93FF93809155
:103C5000020490910304A0E0B0E09C01112700272A
:103C60008091840090918500A0E0B0E0082B192B92
:103C70002A2B3B2B28988FE88EBD369527951795D4
:103C800007950DB407FEFDCF8EB58EBD0DB407FEB2
:103C9000FDCF9EB5289A92FF17C0E0910604F091DF
:103CA00007043097C1F1289880E28EBD0DB407FE5D
:103CB000FDCF8EB58EBD0DB407FEFDCF4EB5289A53
:103CC000C901B801099527C093FF0AC0E091080413
:103CD000F09109043097F9F0C901B80109951BC0AA
:103CE00096FD19C091FD17C090FF06C08091050494
:103CF0008F5F809305040FC097FF0DC08EE00E9478
:103D0000931C682F6F778EE00E94AE1C8091040494
:103D10008F5F80930404FF91EF91BF91AF919F91CA
:103D20008F917F916F915F914F913F912F911F9153
:103D30000F910F900BBE0F900FBE0F901F90189514
:103D40001F920F920FB60F9211248F939F93809121
:103D5000020490910304019690930304809302045B
:103D60009F918F910F900FBE0F901F9018950F93FA
:103D70001F93DF93CF93CDB7DEB728970FB6F89494
:103D8000DEBF0FBECDBF8C01DB0157968C915797DC
:103D900081FF19C080910A04882389F485E190E0AD
:103DA0009A8389831C821B82CE0101960E94D420B3
:103DB0004B815C818EE991E069810E94CD2481E094
:103DC00080930A0494C0A8014F5F5F4F11965C93E3
:103DD0004E930D5F1F4F13961C930E931297035033
:103DE0001040F80181818770823021F450961C9236
:103DF00050975EC098012C5F3F4F882311F11596B4
:103E00003C932E93149798012A5F3F4F17961C926C
:103E10001E921697FA0181818C70883011F08C30D7
:103E200081F417963C932E931697FA0181818C703A
:103E3000883019F42E5F3F4F04C08C3011F4285F96
:103E40003F4F19961C921E921897F801818186FDAA
:103E500007C019963C932E9318972E5F3F4F08C0CA
:103E600014968D919C91159719969C938E93189703
:103E70001B963C932E931A97FA018181807C80389F
:103E800019F42E5F3F4F04C0803C11F4285F3F4F70
:103E90001D961C921E921C97F80180818250840FFF
:103EA000821B50968C9350971F963C932E931E978F
:103EB00000581F4FF801819151968C935197808142
:103EC000817057962C9157972E7F282B80E190E098
:103ED0009E838D83B887AF83226057962C93CE0143
:103EE00005960E94D4208EE991E00E942D25289607
:103EF0000FB6F894DEBF0FBECDBFCF91DF911F91FB
:103F00000F910895CF92DF92FF920F931F93DF934B
:103F1000CF9300D000D00F92CDB7DEB78C016B01EC
:103F2000FE01319685E0DF011D928A95E9F7F801DF
:103F300081818C7011F082E08983D80111968C9177
:103F4000807C11F082E08B83F801818186958695D3
:103F5000982F92959F708370891719F480818064DF
:103F60008083D8018C9186FD1B82F8018181869522
:103F70008695837090E08230910519F0039729F4BB
:103F800002C082E001C088E08A83D80111968C913A
:103F9000829586958695837090E08230910519F020
:103FA000039729F402C082E001C088E08C83F80105
:103FB000808183FF1DC0878986958695869583704D
:103FC00090E08130910571F0823091051CF4892BCD
:103FD00039F00EC08230910539F0039749F406C0DC
:103FE00085E005C086E003C08AE001C08EE08D83D5
:103FF000D8018D919C91119790930C0480930B04A0
:1040000012968C9180930D048981823019F093E08F
:10401000F92E09C0F8018381948190930F04809355
:104020000E0485E0F82E8A81823019F08830A1F5DF
:104030000DC0EF2DF0E0E55FFB4FD80115968D9197
:104040009C91169791838083B2E025C0EF2DF0E01C
:10405000E55FFB4FD80115968C91159780831696D6
:104060008C911697818317968C9117978283189657
:104070008C911897838319968C91199784831A963B
:104080008C911A9785831B968C911B9786831C961F
:104090008C918783B8E0FB0E8B81823069F4EF2D21
:1040A000F0E0E55FFB4FD8011D968D919C911E9726
:1040B00091838083B2E0FB0E8C81823019F08830CE
:1040C000A1F50DC0EF2DF0E0E55FFB4FD8011F9685
:1040D0008D919C91509791838083B2E025C0EF2D04
:1040E000F0E0E55FFB4FD8011F968C911F9780830E
:1040F00050968C915097818351968C9151978283E1
:1041000052968C915297838353968C9153978483C4
:1041100054968C915497858355968C9155978683A8
:1041200056968C918783B8E0FB0EED81EE2379F0F3
:104130002F2D30E0255F3B4FA801495E5F4FC9013D
:10414000BA014E2F50E00E948F488D81F80E2F2D1E
:1041500030E0255F3B4FF80147A165A176A1C90179
:1041600050E00E948F48D80197968C918E5F8F0DFA
:10417000F60182838BE094E0918380830F900F900F
:104180000F900F900F90CF91DF911F910F91FF90A3
:10419000DF90CF90089520E09091A1048091A20437
:1041A000981321E0822F0895CF93DF93EC01409183
:1041B000A104E42FF0E0CF0101966AE070E00E94D4
:1041C00075472091A20430E082179307A9F08881F7
:1041D0009981AA81BB81EE0FFF1FEE0FFF1FED55E6
:1041E000FB4F80839183A283B383842F8F5F8A30B8
:1041F00008F080E08093A104DF91CF910895DF93D0
:10420000CF930F92CDB7DEB78091A2048983298125
:1042100089818F5F898389818A3008F01982898139
:104220008093A20430E0220F331F220F331F2D553D
:104230003B4FC9010F90CF91DF9108959093C30D2B
:104240008093C20D089581E090E0089581E090E0B0
:10425000089589E791E0089580919F049091A004CA
:1042600008958FE894E00895AC01615020E00CC0FF
:10427000DA01A20FB11D9C91FA01E60FF11D8081B8
:104280008C93908361502F5F261790F308950F93BE
:104290001F93DF93CF930F92CDB7DEB7882371F1D1
:1042A0000FEF1FEF1093501400934F140E942E48ED
:1042B00060E071E00E947547809392148DEC9BEA58
:1042C00090937E1480937D149093441480934314B0
:1042D00010934E1400934D148FB78983F89485E49E
:1042E00094E160E070E048E050E00E94174B85E404
:1042F00094E168E00E94342189818FBF0F90CF91B3
:10430000DF911F910F910895CF92DF92EF92FF926C
:104310000F931F93DF93CF93CDB7DEB7AB970FB655
:10432000F894DEBF0FBECDBF80EB96E30197F1F7A7
:1043300082E00E944741809342148C81807E81609C
:104340008C8382E10E94474120E0892B09F021E023
:104350002295220F207E8C818F79822B8C839D81E8
:104360009F7C809192148E838F5F80939214906CC7
:104370009D83E0915B14F0915C14099598878F837D
:1043800085E10E94504166E172E00E945C43892B06
:1043900059F08D81837F88608D838FEF9FEF9887A1
:1043A0008F839A87898713C085E10E945041DE017F
:1043B0001996FC0188E001900D928150E1F7CE0141
:1043C000099668E00E9434218D818C608D83E09194
:1043D0005F14F091601409959A8B898BE0916714B2
:1043E000F091681409952B8B3C8B4D8B5E8B6F8BFA
:1043F000788F898F9A8F0E9426418BA70E94F84060
:104400009AA789A774E0E72EF12CEC0EFD1EC701D8
:104410008E010F5F1F4FB8010E94821FC701B801B4
:104420000E948A3203E068ECE62EF12C50E2C52EA1
:104430005EE4D52E69817A818B810E94B71A80341F
:10444000910519F421E030E020C084349105D9F4BD
:10445000033021F4C6010197F1F713C0023041F493
:1044600084EF91E0F7013197F1F70197D9F709C08F
:10447000013039F480ED97E0F7013197F1F70197BA
:10448000D9F70150B9F620E030E0C901AB960FB67C
:10449000F894DEBF0FBECDBFCF91DF911F910F917A
:1044A000FF90EF90DF90CF90089580918D049091D0
:1044B0008E04892B09F44DC00E948941E0919F042C
:1044C000F091A00460898685978570E00E946C4217
:1044D000E0919F04F091A004808990E00E94F34055
:1044E000E0919F04F091A004ABECB4E02681378109
:1044F000C901FC0188E001900D928150E1F7E09143
:104500009F04F091A004A3EDB4E022853385C90196
:10451000FC0188E001900D928150E1F78BEC94E072
:1045200068E00E94342183ED94E068E00E94342129
:1045300085E16BEC74E00E945B4184E163ED74E023
:104540000E945B41E0918D04F0918E048FE894E02D
:10455000099508950E948941E0919F04F091A0047B
:1045600060898685978570E00E946C42E0919F0487
:10457000F091A004808990E00E94F340E0919F04B4
:10458000F091A004ABECB4E026813781C901FC01B5
:1045900088E001900D928150E1F7E0919F04F09145
:1045A000A004A3EDB4E022853385C901FC0188E0B5
:1045B00001900D928150E1F78BEC94E068E00E944D
:1045C000342183ED94E068E00E94342185E16BECB6
:1045D00074E00E945B4184E163ED74E00E945B4102
:1045E000E091C20DF091C30D8FE894E00995089514
:1045F0009091A1048091A204981719F10E94FF20C4
:10460000FC010097F1F0808191814097D1F4028004
:10461000F381E02DF093A004E0939F040190F081DA
:10462000E02D80818770813019F40E94AA2202C097
:104630000E945522E0919F04F091A00487898D7F0C
:10464000878B089580E060E070E00E94F822089572
:10465000EF92FF921F93CF93DF937C01162FEA0115
:10466000623811F40E942223F70180819181009722
:1046700029F08558924009F049C043C080E060E0CD
:1046800070E040E050E020E030E00E941A1B89E03A
:1046900090E00E94274B182F8AE090E00E94274B61
:1046A000982F812F8B50803110F49095191318E1B9
:1046B000812F0E94621A81E00E944B1788E00E94BD
:1046C000F8180E94F03E8EE191E290939804809356
:1046D000970484E891E290939404809393048FE884
:1046E00094E00E94142781E594E10E94FF3F86E157
:1046F0000E94F81885E892E0F7019183808381E0B9
:1047000009C0812FBE010E94F822F4CFF701118267
:10471000108283E0DF91CF911F91FF90EF90089579
:104720008091E7048F5F8093E704815008951F9381
:10473000CF93DF93EC01162F888580FF1CC0EC819E
:10474000FD813097C1F0D093DE04C093DD0482E098
:104750008887CE0106960995992787FD909502973F
:10476000029710F0133829F4CE01BE010E94BF2336
:1047700002C081E08887DF91CF911F910895CF9289
:10478000DF92EF92FF920F931F93CF93DF938C01F1
:104790007B01C090DD04D090DE04DC0118968C9182
:1047A0001897882341F118961C92C091DB04D09190
:1047B000DC040BC00C171D0729F0CE0167E8A80127
:1047C0000E9497230990D881C02D209799F7D8018E
:1047D0001496ED91FC911597309769F00E151F0511
:1047E00051F01093DE040093DD04C801069663E8DF
:1047F00040E050E00995E091DB04F091DC040E17F5
:104800001F07A1F4F801808191819093DC048093CB
:10481000DB040EC0808191818017910731F4D801AB
:104820008D919C919183808303C0FC01309791F717
:10483000D092DE04C092DD04DF91CF911F910F91E1
:10484000FF90EF90DF90CF9008956091DD0470911C
:10485000DE040E94BF2308958AE88093E704109243
:10486000E9041092E8041092DC041092DB04109228
:10487000DE041092DD0408951F93CF93DF9310920E
:104880008A05C091DB04D091DC0411E00EC089855B
:10489000882341F018871986CE0162E840E050E095
:1048A0000E9497230990D881C02D209781F7DF912E
:1048B000CF911F91089580918A05882311F00E945D
:1048C0003C242091E804222309F455C08091E90496
:1048D00090E0FC01EE0FFF1FEE0FFF1FE80FF91F26
:1048E000E651FB4F60816093E60441815281509311
:1048F000E5044093E4040380F481E02DF093E304A5
:10490000E093E20401968F7190708093E904215046
:104910002093E804309741F58091DB049091DC040A
:1049200018C080918A05882311F00E943C24409190
:10493000E4045091E5048091E0049091E1046091D9
:10494000E6040E949723E091E004F091E104808165
:1049500091819093E1048093E0048091E004909130
:10496000E104892BF1F607C0613811F481E08087FA
:10497000CF010E94972380918A052091E80430E0BE
:10498000280F311DC901089580918A052091E804FE
:1049900030E0280F311DC9010895DC012091E804A1
:1049A000203219F421E030E01AC08091E904820F2E
:1049B0008F718093DF0490E0FC01EE0FFF1FEE0F7C
:1049C000FF1FE80FF91FE651FB4F608352834183BD
:1049D000B483A3832F5F2093E80420E030E0C90173
:1049E00008950F931F930091DD041091DE040E943F
:1049F00097231093DE040093DD041F910F91089517
:104A0000CF93DF93DC01EB016091DB044091DC0488
:104A1000862F942F9C01F90103C00190F081E02DB5
:104A2000EA17FB07B9F03097C1F76C9311964C93D6
:104A30001197B093DC04A093DB0481E018968C936B
:104A4000189717961C921E921697CD0161E8AE0139
:104A50000E94F124DF91CF910895FC01009741F06D
:104A600080858150823020F481E0818780938A059F
:104A7000089520E030E0FC018085882311F021E0DA
:104A800030E0C9010895CF93DF93C6E0D1E004C0C0
:104A900060E070E00E940025899199910097C1F72C
:104AA000DF91CF910895FC01808191812281338132
:104AB000820F931F918380830895EF92FF920F934B
:104AC0001F93FC01E080F180028113810E94FE159A
:104AD0000E0D1F1D081B190BC8011F910F91FF9090
:104AE000EF9008950F931F938C010E94FE1540E0F4
:104AF00050E0F80120813181821B930B22813381A8
:104B00008217930710F041E050E0CA011F910F9106
:104B100008950F931F938C010E94FE15F801918355
:104B200080831F910F9108950F931F938C01FC01B7
:104B3000738362830E94FE15F801918380831F9125
:104B40000F91089520E030E0FC0186819781892B48
:104B500011F421E030E0C9010895FC012281338184
:104B600080819181280F391FC9010895FC0180813E
:104B70009181089520918B0530918C052115310587
:104B800011F021E030E0C901089580918B059091EA
:104B90008C05892B19F420E030E004C020918D05AC
:104BA00030918E05C901089580918B0590918C05F7
:104BB000892B29F410928E0510928D0508950E947C
:104BC000FE15BC01E0918B05F0918C05428153816B
:104BD00080819181480F591F461B570B0CC02281C1
:104BE000338180819181280F391F261B370B2417B1
:104BF000350708F4A9010480F581E02D309779F795
:104C0000460F571F50938E0540938D050895CF93FF
:104C1000DF93EC01E0918B05F0918C058E179F07D7
:104C200041F48C819D8190938C0580938B0514C0F9
:104C3000FC01309731F0848195818C179D07C1F775
:104C400007C01D821C821F821E82DF91CF910895B2
:104C50008C819D81958384830E94D425F2CFFC01B1
:104C600080819181860F971F918380830E94D42534
:104C7000089584EB91E00E942D250895EF92FF9214
:104C80000F931F93CF93DF937C01FC01808191816F
:104C9000009729F08A35910509F06DC00BC010927C
:104CA0008C0510928B058AE590E0F7019183808353
:104CB00081E065C0673849F59A01E0918B05F09174
:104CC0008C0503C00480F581E02D309741F3868187
:104CD000978182179307B1F3E0938B05F0938C05CE
:104CE0000FC016968D919C9117978217930711F01C
:104CF000FD0106C014968D919C9115979583848330
:104D0000A481B581109769F7CECF623861F6C09162
:104D10008B05D0918C0500E010E02AC0CE010E94E6
:104D20007225892B01F18E819F8168E8AE010E9476
:104D3000CD24892BA1F41F821E828C819D810115B7
:104D4000110521F0F8019583848304C090938C05AC
:104D500080938B051D821C820E94D425D8CF84EBC2
:104D600091E00E942D258E018C819D819C01E9019D
:104D70002097A1F698CFF7011182108283E0DF918E
:104D8000CF911F910F91FF90EF900895CF93DF93F4
:104D9000EC0184EB91E00E942D258E819F81892B6F
:104DA00069F0E0918B05F0918C0506C0EC17FD07CA
:104DB000A9F00480F581E02D3097C1F78091DD04E2
:104DC0009091DE049F838E8380918B0590918C055A
:104DD0009D838C83D0938C05C0938B050E94D42532
:104DE000DF91CF9108950F931F938C010E94892525
:104DF000C8010E94C6261F910F9108950F931F931B
:104E00008C010E945325C8010E94C6261F910F9154
:104E100008950F931F938C010E949425C8010E944E
:104E2000C6261F910F910895FC019093C50D8093A4
:104E3000C40D0084F185E02D81E49CE209958CE8A5
:104E400097E20E94933091E09093AE0A1092AF0ADD
:104E50008EEF8093B00A80E88093B10A9093B80AED
:104E60009093B90A8AEA8093BA0A8093BB0A82E0D7
:104E70008093C60A08951F93CF93DF93EC0110929D
:104E8000C60A2EC0212F30E0F901EE0FFF1FC90125
:104E900053E0880F991F5A95E1F7E80FF91FE25583
:104EA000F54F80818130C9F4C901880F991F880F9F
:104EB000991F820F931F880F991F8055954FBE0130
:104EC00048E050E00E948248009739F48AE0189F39
:104ED000900111242255354F09C01F5F1093C60A57
:104EE0001091C60A123070F220E030E0C901DF9163
:104EF000CF911F910895BC0185E10E945B41E09133
:104F0000C40DF091C50D309721F00480F581E02D9E
:104F100009950E94ED3E0895DF92EF92FF920F9364
:104F20001F93DF93CF93CDB7DEB728970FB6F894D2
:104F3000DEBF0FBECDBF8C0110929305109291057C
:104F40000E9489410E94F8409093900580938F05BC
:104F5000CE0101960115110519F466E172E001C058
:104F6000B8010E944B43E0918F05F0919005339674
:104F7000F093C50AE093C40A339780919105E80F36
:104F8000F11D1282118280919105E0918F05F091BF
:104F90009005E80FF11D83E080838091250E282F76
:104FA00030E0C9018F709070892B09F03FC080916B
:104FB000260E9091270E892BC9F580919105E091DD
:104FC0008F05F0919005E80FF11D81818064818348
:104FD0008091240E282F30E0C9018F709070892BAA
:104FE00081F48091250E807F61F480919105E0919C
:104FF0008F05F0919005E80FF11D81818068818314
:105000005FC0E091C40AF091C50AB4E0220F331FDB
:10501000BA95E1F78091250E82958F70822B80835F
:105020008091C40A9091C50A019646C08091240ED1
:1050300090E08F709070892B51F5822F807F39F529
:1050400080919105E0918F05F0919005E80FF11D99
:10505000818180688183E091C40AF091C50A9091B2
:10506000250E9F708091240E807F982B9083E09175
:10507000C40AF091C50A8091260E9091270E928362
:1050800081838091C40A9091C50A039615C0E0916E
:10509000C40AF091C50A8091240E9091250EA0912A
:1050A000260EB091270E80839183A283B3838091D3
:1050B000C40A9091C50A04969093C50A8093C40AC5
:1050C00080912A0E813161F480919105E0918F05E4
:1050D000F0919005E80FF11D8181806281830EC0FF
:1050E000E091C40AF091C50A80838091C40A90912E
:1050F000C50A01969093C50A8093C40A80912B0E2D
:10510000803479F08F3FC9F0813011F5809191059D
:10511000E0918F05F0919005E80FF11D8181886085
:105120000AC080919105E0918F05F0919005E80FFC
:10513000F11D81818061818319C080919105E09189
:105140008F05F0919005E80FF11D81818861F3CF03
:10515000E091C40AF091C50A80838091C40A9091BD
:10516000C50A01969093C50A8093C40A8CE29EE01A
:105170000E943B27DC019093C30A8093C20A0097E8
:1051800009F49CC080919105E0918F05F091900504
:10519000E80FF11D11968C918295807F9281892B69
:1051A00082838091D00D92E089279091340E9817D8
:1051B000B1F59091350E8091D10D981781F59091B0
:1051C000360E8091D20D981751F59091370E80913F
:1051D000D30D981721F59091380E8091D40D981722
:1051E000F1F49091390E8091D50D9817C1F49091FA
:1051F0003A0E8091D60D981791F490913B0E8091C4
:10520000D70D981761F480919105E0918F05F09189
:105210009005E80FF11D8281806C828365C08091CA
:10522000340E9091350E892B59F58091360E909160
:10523000370E892B29F58091380E9091390E892BE4
:10524000F9F480913A0E87FD1BC080919105E091A1
:105250008F05F0919005E80FF11D828180688283AF
:10526000E091C40AF091C50A80913A0E90913B0EEC
:10527000918380838091C40A9091C50A029630C0C0
:1052800080919105E0918F05F0919005E80FF11D57
:105290008281806482832091C40A3091C50AC90149
:1052A000DC01E4E3FEE088E001900D928150E1F73B
:1052B0008091C40A9091C50A089612C08091C40AD0
:1052C0009091C50A9C01D901ECE2FEE080E10190D9
:1052D0000D928150E1F78091C40A9091C50A4096E1
:1052E0009093C50A8093C40A80913C0E8F3F09F0C9
:1052F00065C080913E0E90913F0E892B09F050C001
:105300008091400E9091410E892B09F049C0809107
:10531000420E9091430E892B09F042C08091440EB9
:105320009091450E892BE1F58091460E9091470EA4
:10533000892BB1F58091480E9091490E892B81F50A
:1053400080914A0E882361F580914B0E8150823006
:1053500038F580919105E0918F05F0919005E80F67
:10536000F11D828188608283E091C40AF091C50AB0
:1053700080EA8083E091C40AF091C50A80913D0ED5
:1053800090E08F709070880F991F2081282B2083C8
:10539000E091C40AF091C50A80914B0E81838AC0C6
:1053A0008091C40A9091C50A9C01D901ECE3FEE00A
:1053B00080E101900D928150E1F7ADC08CE39EE059
:1053C0000E943B27DC019093C30A8093C20A009796
:1053D00009F494C080919105E0918F05F0919005BA
:1053E000E80FF11D828111969C91892B8283FE0129
:1053F0003196898192E089279091440E981779F52A
:105400009091450E8181981751F59091460E8281B9
:10541000981729F59091470E8381981701F590917F
:10542000480E84819817D9F49091490E8581981778
:10543000B1F490914A0E8681981789F490914B0EA1
:105440008781981761F480919105E0918F05F09123
:105450009005E80FF11D82818C60828365C0809188
:10546000440E9091450E892B59F58091460E9091EE
:10547000470E892B29F58091480E9091490E892B72
:10548000F9F480914A0E87FD1BC080919105E0914F
:105490008F05F0919005E80FF11D8281886082836D
:1054A000E091C40AF091C50A80914A0E90914B0E8A
:1054B000918380838091C40A9091C50A029630C07E
:1054C00080919105E0918F05F0919005E80FF11D15
:1054D0008281846082832091C40A3091C50AC90107
:1054E000DC01E4E4FEE088E001900D928150E1F7F8
:1054F0008091C40A9091C50A089612C08091C40A8E
:105500009091C50A9C01D901ECE3FEE080E1019095
:105510000D928150E1F78091C40A9091C50A40969E
:105520009093C50A8093C40A88E280939305809182
:105530002A0E813109F064C090914C0E80914D0E7D
:10554000805B904F0F9770F590914E0E80914F0EAB
:1055500020EF803B920730F18F5B904F18F5E09180
:10556000C40AF091C50A8BEF8083E091C40AF091E0
:10557000C50A90914F0E905B80914D0E8295807F71
:10558000980F9183E091C40AF091C50A8091520E60
:105590009091530E938382838091C40A9091C50A9F
:1055A000049625C0E091C40AF091C50A88EF808373
:1055B000E091C40AF091C50A80914C0E90914D0E75
:1055C000A0914E0EB0914F0E81839283A383B4833A
:1055D000E091C40AF091C50A8091520E9091530E49
:1055E000968385838091C40A9091C50A079690930B
:1055F000C50A8093C40A80919305885F80939305C0
:10560000A091C40A80918F05A81BA0939105809159
:105610009305482F50E0E091CE0DF091CF0DE41BA3
:10562000F50B2A2F30E086E690E0821B930B609109
:105630008F05709190058E179F0708F0F6C0CB017B
:1056400004964A2F50E00E949848E0918F05F0910F
:1056500090058091CE0D9091CF0D906C9083E0914C
:105660008F05F09190058091CE0D8183E0918F059B
:10567000F09190058091A70A8283E0918F05F091C7
:1056800090058091A60A8383809191058C5F809319
:105690009105E6E6DE2E4D2D481B487F409392058E
:1056A00060918F0570919005680F711D2091930591
:1056B00030E02C5D314FCB01B90150E00E948F48A2
:1056C000209191058091920590E0820F911D0E949A
:1056D000F3400E9409437C01009709F4C3C08E0186
:1056E0000F5F1F4FC8010E947B27C7010E94B44271
:1056F000C7010E94ED42209193058091920590E0B0
:10570000820F911D9093A50A8093A40A85E080934F
:105710009105E0918F05F09190058091CE0D9091CB
:10572000CF0D906E9083E0918F05F0919005809160
:10573000CE0D818380919105D81A88EFD822D0921E
:105740009205780158C0E0918F05F091900573E0C3
:10575000369527957A95E1F724836091CE0D709167
:10576000CF0D4091A40A5091A50A9B01241B350B33
:105770008091920590E02817390720F4862F841B2A
:10578000809392058091910560918F0570919005AD
:10579000680F711D409192052091A40A3091A50ACD
:1057A0002C5D314FCB01B90150E00E948F48209110
:1057B00091058091920590E0820F911D0E94F34027
:1057C0000E9409438C01009709F44CC0C7010E9454
:1057D0007B27C8010E94B442C8010E94ED4220917B
:1057E00092058091A40A9091A50A820F911D909331
:1057F000A50A8093A40A2091A40A3091A50A809159
:10580000CE0D9091CF0D2817390708F49CCF8091C9
:10581000A60A9091A70A01969093A70A8093A60AD8
:105820001092A50A1092A40A1BC0260F371F4C5DC8
:10583000514FC901BA01AF010E948F4820919105D3
:105840008091CE0D9091CF0D820F911D20919305E7
:10585000821B91090E94F340CE0101960E947B2792
:1058600081E001C080E028960FB6F894DEBF0FBE3D
:10587000CDBFCF91DF911F910F91FF90EF90DF90FF
:1058800008951F93CF93DF93109293051092910583
:105890000E94F8409093900580938F058AEA9AE0E1
:1058A0000E947225892B41F01092A30A1092A20A3D
:1058B0001092A50A1092A40AE0918F05F09190052C
:1058C000908180E02181422F50E0482B592BCA0162
:1058D0008070987F892F9927803C910549F0803E00
:1058E0009105A9F0C0E0D0E010E020E030E01DC05C
:1058F000EA01D770928180E0238130E0282B392B98
:10590000809191058C5F8093910510E00EC0148109
:10591000928180E0238130E0282B392BEA01D77077
:10592000809191058B5F809391058091A40A90915D
:10593000A50A892BF1F0209709F4E7C38091A20A08
:105940009091A30AC817D90709F0DFC38091A80A6C
:105950009091A90A8217930709F0D7C384E10E94A6
:105960005041BC0186EC9DE00E945C43892BC9F448
:10597000CCC32097B1F0D093A30AC093A20A30936E
:10598000A90A2093A80A8AEA9AE067E771E00E94D0
:10599000942584E10E945041BC0186EC9DE00E9468
:1059A0004B4350919105553009F43DC320918F052B
:1059B00030919005852F90E0D901A80FB91F4C9127
:1059C000433021F0413409F0A0C315C3FC013396E4
:1059D000E20FF31FF093C50AE093C40A11968C916D
:1059E00086FD22C087FD0DC081919191A191B19159
:1059F0008093A2059093A305A093A405B093A50559
:105A00000EC080E68093A20580818F708093A305ED
:105A1000818192819093A5058093A4053396F0939C
:105A2000C50AE093C40A1BC087FD10C0808182951F
:105A30008F7080668093A20581918295807F80938C
:105A4000A305F093C50AE093C40A05C080E68093DD
:105A5000A2051092A3051092A5051092A405A0918D
:105A60008F05B091900580919105FD01E80FF11D22
:105A7000818185FD0BC0E091C40AF091C50A819136
:105A80008093A805F093C50AE093C40A809191051C
:105A9000FD01E80FF11D818190E0887190708830E0
:105AA000910561F0893091051CF4892B79F019C0BA
:105AB0008031910529F04897A1F406C081E001C02A
:105AC00080E48093A9050DC08FEFFBCFE091C40A5D
:105AD000F091C50A81918093A905F093C50AE093DE
